{"contracts/CrowdfundingMarketplace.sol":{"CrowdfundingMarketplace":{"abi":[{"inputs":[],"stateMutability":"nonpayable","type":"constructor"},{"anonymous":false,"inputs":[{"indexed":true,"internalType":"uint256","name":"campaignId","type":"uint256"},{"indexed":true,"internalType":"address","name":"creator","type":"address"},{"indexed":false,"internalType":"uint256","name":"targetAmount","type":"uint256"},{"indexed":false,"internalType":"uint256","name":"deadline","type":"uint256"},{"indexed":false,"internalType":"string","name":"metadataHash","type":"string"}],"name":"CampaignCreated","type":"event"},{"anonymous":false,"inputs":[{"indexed":true,"internalType":"uint256","name":"campaignId","type":"uint256"},{"indexed":false,"internalType":"uint256","name":"totalRaised","type":"uint256"}],"name":"CampaignFunded","type":"event"},{"anonymous":false,"inputs":[{"indexed":true,"internalType":"uint256","name":"campaignId","type":"uint256"},{"indexed":true,"internalType":"address","name":"creator","type":"address"},{"indexed":false,"internalType":"uint256","name":"amount","type":"uint256"}],"name":"CampaignWithdrawn","type":"event"},{"anonymous":false,"inputs":[{"indexed":false,"internalType":"uint256","name":"oldCommission","type":"uint256"},{"indexed":false,"internalType":"uint256","name":"newCommission","type":"uint256"}],"name":"CommissionUpdated","type":"event"},{"anonymous":false,"inputs":[{"indexed":true,"internalType":"uint256","name":"campaignId","type":"uint256"},{"indexed":true,"internalType":"address","name":"contributor","type":"address"},{"indexed":false,"internalType":"uint256","name":"amount","type":"uint256"}],"name":"ContributionMade","type":"event"},{"anonymous":false,"inputs":[{"indexed":true,"internalType":"address","name":"admin","type":"address"},{"indexed":false,"internalType":"uint256","name":"amount","type":"uint256"}],"name":"FeesWithdrawn","type":"event"},{"anonymous":false,"inputs":[{"indexed":true,"internalType":"address","name":"previousOwner","type":"address"},{"indexed":true,"internalType":"address","name":"newOwner","type":"address"}],"name":"OwnershipTransferred","type":"event"},{"anonymous":false,"inputs":[{"indexed":false,"internalType":"address","name":"account","type":"address"}],"name":"Paused","type":"event"},{"anonymous":false,"inputs":[{"indexed":true,"internalType":"uint256","name":"campaignId","type":"uint256"},{"indexed":true,"internalType":"address","name":"contributor","type":"address"},{"indexed":false,"internalType":"uint256","name":"amount","type":"uint256"}],"name":"RefundIssued","type":"event"},{"anonymous":false,"inputs":[{"indexed":false,"internalType":"address","name":"account","type":"address"}],"name":"Unpaused","type":"event"},{"inputs":[],"name":"CAMPAIGN_CREATION_FEE","outputs":[{"internalType":"uint256","name":"","type":"uint256"}],"stateMutability":"view","type":"function"},{"inputs":[{"internalType":"uint256","name":"","type":"uint256"},{"internalType":"uint256","name":"","type":"uint256"}],"name":"campaignContributions","outputs":[{"internalType":"address","name":"contributor","type":"address"},{"internalType":"uint256","name":"amount","type":"uint256"},{"internalType":"uint256","name":"timestamp","type":"uint256"}],"stateMutability":"view","type":"function"},{"inputs":[],"name":"campaignCounter","outputs":[{"internalType":"uint256","name":"","type":"uint256"}],"stateMutability":"view","type":"function"},{"inputs":[{"internalType":"uint256","name":"","type":"uint256"}],"name":"campaigns","outputs":[{"internalType":"uint256","name":"id","type":"uint256"},{"internalType":"address payable","name":"creator","type":"address"},{"internalType":"string","name":"title","type":"string"},{"internalType":"string","name":"description","type":"string"},{"internalType":"string","name":"metadataHash","type":"string"},{"internalType":"uint256","name":"targetAmount","type":"uint256"},{"internalType":"uint256","name":"raisedAmount","type":"uint256"},{"internalType":"uint256","name":"deadline","type":"uint256"},{"internalType":"bool","name":"withdrawn","type":"bool"},{"internalType":"bool","name":"active","type":"bool"},{"internalType":"uint256","name":"createdAt","type":"uint256"},{"internalType":"uint256","name":"contributorsCount","type":"uint256"}],"stateMutability":"view","type":"function"},{"inputs":[{"internalType":"uint256","name":"_campaignId","type":"uint256"}],"name":"contributeToCampaign","outputs":[],"stateMutability":"payable","type":"function"},{"inputs":[{"internalType":"uint256","name":"","type":"uint256"},{"internalType":"address","name":"","type":"address"}],"name":"contributions","outputs":[{"internalType":"uint256","name":"","type":"uint256"}],"stateMutability":"view","type":"function"},{"inputs":[{"internalType":"string","name":"_title","type":"string"},{"internalType":"string","name":"_description","type":"string"},{"internalType":"string","name":"_metadataHash","type":"string"},{"internalType":"uint256","name":"_targetAmount","type":"uint256"},{"internalType":"uint256","name":"_duration","type":"uint256"}],"name":"createCampaign","outputs":[],"stateMutability":"payable","type":"function"},{"inputs":[{"internalType":"uint256","name":"_campaignId","type":"uint256"}],"name":"deactivateCampaign","outputs":[],"stateMutability":"nonpayable","type":"function"},{"inputs":[{"internalType":"uint256","name":"_campaignId","type":"uint256"},{"internalType":"address","name":"_contributor","type":"address"}],"name":"emergencyRefund","outputs":[],"stateMutability":"nonpayable","type":"function"},{"inputs":[],"name":"emergencyWithdraw","outputs":[],"stateMutability":"nonpayable","type":"function"},{"inputs":[{"internalType":"uint256","name":"_offset","type":"uint256"},{"internalType":"uint256","name":"_limit","type":"uint256"}],"name":"getActiveCampaigns","outputs":[{"components":[{"internalType":"uint256","name":"id","type":"uint256"},{"internalType":"address payable","name":"creator","type":"address"},{"internalType":"string","name":"title","type":"string"},{"internalType":"string","name":"description","type":"string"},{"internalType":"string","name":"metadataHash","type":"string"},{"internalType":"uint256","name":"targetAmount","type":"uint256"},{"internalType":"uint256","name":"raisedAmount","type":"uint256"},{"internalType":"uint256","name":"deadline","type":"uint256"},{"internalType":"bool","name":"withdrawn","type":"bool"},{"internalType":"bool","name":"active","type":"bool"},{"internalType":"uint256","name":"createdAt","type":"uint256"},{"internalType":"uint256","name":"contributorsCount","type":"uint256"}],"internalType":"struct CrowdfundingMarketplace.Campaign[]","name":"","type":"tuple[]"}],"stateMutability":"view","type":"function"},{"inputs":[{"internalType":"uint256","name":"_campaignId","type":"uint256"}],"name":"getCampaign","outputs":[{"components":[{"internalType":"uint256","name":"id","type":"uint256"},{"internalType":"address payable","name":"creator","type":"address"},{"internalType":"string","name":"title","type":"string"},{"internalType":"string","name":"description","type":"string"},{"internalType":"string","name":"metadataHash","type":"string"},{"internalType":"uint256","name":"targetAmount","type":"uint256"},{"internalType":"uint256","name":"raisedAmount","type":"uint256"},{"internalType":"uint256","name":"deadline","type":"uint256"},{"internalType":"bool","name":"withdrawn","type":"bool"},{"internalType":"bool","name":"active","type":"bool"},{"internalType":"uint256","name":"createdAt","type":"uint256"},{"internalType":"uint256","name":"contributorsCount","type":"uint256"}],"internalType":"struct CrowdfundingMarketplace.Campaign","name":"","type":"tuple"}],"stateMutability":"view","type":"function"},{"inputs":[{"internalType":"uint256","name":"_campaignId","type":"uint256"}],"name":"getCampaignContributions","outputs":[{"components":[{"internalType":"address","name":"contributor","type":"address"},{"internalType":"uint256","name":"amount","type":"uint256"},{"internalType":"uint256","name":"timestamp","type":"uint256"}],"internalType":"struct CrowdfundingMarketplace.Contribution[]","name":"","type":"tuple[]"}],"stateMutability":"view","type":"function"},{"inputs":[{"internalType":"uint256","name":"_campaignId","type":"uint256"}],"name":"getCampaignStats","outputs":[{"internalType":"uint256","name":"raisedAmount","type":"uint256"},{"internalType":"uint256","name":"targetAmount","type":"uint256"},{"internalType":"uint256","name":"contributorsCount","type":"uint256"},{"internalType":"uint256","name":"timeLeft","type":"uint256"},{"internalType":"bool","name":"isActive","type":"bool"},{"internalType":"bool","name":"isSuccessful","type":"bool"}],"stateMutability":"view","type":"function"},{"inputs":[],"name":"getContractStats","outputs":[{"internalType":"uint256","name":"totalCampaigns","type":"uint256"},{"internalType":"uint256","name":"totalFees","type":"uint256"},{"internalType":"uint256","name":"contractBalance","type":"uint256"}],"stateMutability":"view","type":"function"},{"inputs":[{"internalType":"uint256","name":"_campaignId","type":"uint256"},{"internalType":"address","name":"_contributor","type":"address"}],"name":"getContribution","outputs":[{"internalType":"uint256","name":"","type":"uint256"}],"stateMutability":"view","type":"function"},{"inputs":[{"internalType":"uint256","name":"_campaignId","type":"uint256"}],"name":"getRefund","outputs":[],"stateMutability":"nonpayable","type":"function"},{"inputs":[{"internalType":"address","name":"_user","type":"address"}],"name":"getUserCampaigns","outputs":[{"internalType":"uint256[]","name":"","type":"uint256[]"}],"stateMutability":"view","type":"function"},{"inputs":[{"internalType":"address","name":"_user","type":"address"}],"name":"getUserContributions","outputs":[{"internalType":"uint256[]","name":"","type":"uint256[]"}],"stateMutability":"view","type":"function"},{"inputs":[{"internalType":"uint256","name":"_campaignId","type":"uint256"}],"name":"isCampaignSuccessful","outputs":[{"internalType":"bool","name":"","type":"bool"}],"stateMutability":"view","type":"function"},{"inputs":[],"name":"owner","outputs":[{"internalType":"address","name":"","type":"address"}],"stateMutability":"view","type":"function"},{"inputs":[],"name":"pause","outputs":[],"stateMutability":"nonpayable","type":"function"},{"inputs":[],"name":"paused","outputs":[{"internalType":"bool","name":"","type":"bool"}],"stateMutability":"view","type":"function"},{"inputs":[{"internalType":"uint256","name":"_campaignId","type":"uint256"}],"name":"reactivateCampaign","outputs":[],"stateMutability":"nonpayable","type":"function"},{"inputs":[],"name":"renounceOwnership","outputs":[],"stateMutability":"nonpayable","type":"function"},{"inputs":[],"name":"totalFeesCollected","outputs":[{"internalType":"uint256","name":"","type":"uint256"}],"stateMutability":"view","type":"function"},{"inputs":[{"internalType":"address","name":"newOwner","type":"address"}],"name":"transferOwnership","outputs":[],"stateMutability":"nonpayable","type":"function"},{"inputs":[],"name":"unpause","outputs":[],"stateMutability":"nonpayable","type":"function"},{"inputs":[{"internalType":"address","name":"","type":"address"},{"internalType":"uint256","name":"","type":"uint256"}],"name":"userCampaigns","outputs":[{"internalType":"uint256","name":"","type":"uint256"}],"stateMutability":"view","type":"function"},{"inputs":[{"internalType":"address","name":"","type":"address"},{"internalType":"uint256","name":"","type":"uint256"}],"name":"userContributions","outputs":[{"internalType":"uint256","name":"","type":"uint256"}],"stateMutability":"view","type":"function"},{"inputs":[{"internalType":"uint256","name":"_campaignId","type":"uint256"}],"name":"withdrawCampaignFunds","outputs":[],"stateMutability":"nonpayable","type":"function"},{"inputs":[{"internalType":"uint256","name":"_amount","type":"uint256"}],"name":"withdrawFees","outputs":[],"stateMutability":"nonpayable","type":"function"},{"stateMutability":"payable","type":"receive"}],"evm":{"bytecode":{"linkReferences":{},"object":"608080604052346100635760016000556001543360018060a01b0382167f8be0079c531659141344cd1fd0a4f28419497f9722a3daafe3b4186f6b6457e0600080a36001600160a81b0319163360ff60a01b1916176001556126fa90816100698239f35b600080fdfe6080604052600436101561001b575b361561001957600080fd5b005b60003560e01c806306db57bb14611cf65780630b7ef89b146119fe57806314169e2a1461180d578063141961bc1461171357806319ac74bd146116c95780631fdc217c1461161e5780633d891f59146102ef5780633f4ba83a14611582578063539157bd146115285780635598f8cc146114215780635c975abb146113fb5780635e318e07146112d457806360c6d8ae146112b6578063660bf9de14611173578063715018a6146111165780637331fa95146110be5780637eca30fe146110685780638456cb59146110065780638da5cb5b14610fdd578063980f2e6614610841578063a1e5084c146107c9578063b653145814610751578063c4b8d53d1461072e578063d2f0be99146105ab578063d3b0c32c146104c1578063dae21c58146103c0578063db2e21bc14610364578063dfe6b5d614610337578063e081dbf9146102ef578063e36465a314610267578063f2fde38b146101a35763fca604d70361000e573461019e57600036600319011261019e576020600354604051908152f35b600080fd5b3461019e57602036600319011261019e576101bc611f66565b6101c461212f565b6001600160a01b0390811690811561021357600154826001600160601b0360a01b821617600155167f8be0079c531659141344cd1fd0a4f28419497f9722a3daafe3b4186f6b6457e0600080a3005b60405162461bcd60e51b815260206004820152602660248201527f4f776e61626c653a206e6577206f776e657220697320746865207a65726f206160448201526564647265737360d01b6064820152608490fd5b3461019e5760208060031936011261019e576001600160a01b03610289611f66565b1660005260088152604060002090604051908181845491828152019360005281600020916000905b8282106102d8576102d4856102c881890382611e5e565b604051918291826120f4565b0390f35b8354865294850194600193840193909101906102b1565b3461019e57604036600319011261019e57610308611f7c565b600435600052600560205260406000209060018060a01b03166000526020526020604060002054604051908152f35b3461019e57600036600319011261019e576060600354600254479060405192835260208301526040820152f35b3461019e57600036600319011261019e5761037d61212f565b61038561222c565b60008080804760018060a01b03600154168282156103b7575bf1156103ab576001600055005b6040513d6000823e3d90fd5b506108fc61039e565b3461019e57604036600319011261019e576004356103dc611f7c565b906103e561212f565b6103ed61222c565b8060005260206005815260406000209260018060a01b03169283600052815261041c604060002054151561234d565b816000526005815260406000208360005281526040600020549082600052600581526040600020846000528152600060408120558260005260048152600660406000200161046b8382546121d8565b90556000828581156104b7575b600092839283928392f1156103ab577f7a482fdeb6bc9a1376f597068a214a7a39472bb2eff1b8cad21ba04f49ddca1b91604051908152a36001600055005b6108fc9250610478565b3461019e5760208060031936011261019e576004356000526006815260406000209081546104ee816123ed565b906104fc6040519283611e5e565b8082528282018094600052836000206000915b83831061056e5760408051878152865181890181905289928201908960005b82811061053b5784840385f35b855180516001600160a01b031685528083015185840152604090810151908501529481019460609093019260010161052e565b60038660019260405161058081611e42565b848060a01b03865416815284860154838201526002860154604082015281520192019201919061050f565b3461019e5760208060031936011261019e5760043580151580610722575b6105d290612282565b80600052600482526105f160ff60086040600020015460081c166122c4565b806000526004825261060d600760406000200154421015612309565b61061561222c565b806000526004825260406000206005600682015491015411156106dd5780600052600582526040600020336000528252610655604060002054151561234d565b8060005260058252604060002033600052825260406000205491816000526005815260406000203360005281526000604081205582600081156106d4575b600080809381933390f1156103ab577f7a482fdeb6bc9a1376f597068a214a7a39472bb2eff1b8cad21ba04f49ddca1b906040519384523393a36001600055005b506108fc610693565b60405162461bcd60e51b815260048101839052601760248201527f43616d706169676e20776173207375636365737366756c0000000000000000006044820152606490fd5b506003548111156105c9565b3461019e57600036600319011261019e576020604051670de0b6b3a76400008152f35b3461019e5761076861076236611fc0565b90612419565b60405160209182820192808352815180945260408301938160408260051b8601019301916000955b82871061079d5785850386f35b9091929382806107b9600193603f198a82030186528851611ff2565b9601920196019592919092610790565b3461019e5760208060031936011261019e576001600160a01b036107eb611f66565b1660005260078152604060002090604051908181845491828152019360005281600020916000905b82821061082a576102d4856102c881890382611e5e565b835486529485019460019384019390910190610813565b60a036600319011261019e5760043567ffffffffffffffff811161019e5761086d90369060040161209d565b60243567ffffffffffffffff811161019e5761088d90369060040161209d565b604491823567ffffffffffffffff811161019e576108af90369060040161209d565b92608435906108bc6121e5565b6108c461222c565b670de0b6b3a76400003410610f8e5760643515610f3e578115610efa57825115610ebe57845115610e7a57506109096108fe600354612187565b918260035542612196565b926040519261091784611e25565b8284523360208501526040840152606083015283608083015260643560a0830152600060c08301528260e0830152600061010083015260016101208301524261014083015260006101608301526000526004602052604060002090805182556001820160018060a01b036020830151166001600160601b0360a01b825416179055604081015180519067ffffffffffffffff8211610cc45781906109be6002860154611deb565b601f8111610e27575b50602090601f8311600114610db557600092610daa575b50508160011b916000199060031b1c19161760028301555b606081015180519067ffffffffffffffff8211610cc4578190610a1c6003860154611deb565b601f8111610d57575b50602090601f8311600114610ce557600092610cda575b50508160011b916000199060031b1c19161760038301555b608081015180519067ffffffffffffffff8211610cc457610a786004850154611deb565b601f8111610c7d575b50602090601f8311600114610c07579180600a949261016094600092610bfc575b50508160011b916000199060031b1c19161760048501555b60a0810151600585015560c0810151600685015560e08101516007850155600884016101008201511515815460ff61ff00610120860151151560081b1692169061ffff19161717905561014081015160098501550151910155336000526007602052610b2d6040600020600354906121a3565b600254670de0b6b3a76400008101809111610be657600255670de0b6b3a76400003411610ba9575b7f2e64da7e06e88ccd84d69eccb21119ca81e40e5648611e89edfe888c8fa625976003549160405190606435825260208201526060604082015280610b9f33956060830190611f26565b0390a36001600055005b670de0b6b3a763ffff193401348111610be657600080808093818115610bdd575b3390f1610b55576040513d6000823e3d90fd5b506108fc610bca565b634e487b7160e01b600052601160045260246000fd5b015190508880610aa2565b906004850160005260206000209160005b601f1985168110610c65575092600a94926001926101609583601f19811610610c4c575b505050811b016004850155610aba565b015160001960f88460031b161c19169055888080610c3c565b91926020600181928685015181550194019201610c18565b600485016000526020600020601f840160051c810160208510610cbd575b601f830160051c82018110610cb1575050610a81565b60008155600101610c9b565b5080610c9b565b634e487b7160e01b600052604160045260246000fd5b015190508680610a3c565b9250600385016000526020600020906000935b601f1984168510610d3c576001945083601f19811610610d23575b505050811b016003830155610a54565b015160001960f88460031b161c19169055868080610d13565b81810151835560209485019460019093019290910190610cf8565b909150600385016000526020600020601f840160051c810160208510610da3575b90849392915b601f830160051c82018110610d94575050610a25565b60008155859450600101610d7e565b5080610d78565b0151905086806109de565b9250600285016000526020600020906000935b601f1984168510610e0c576001945083601f19811610610df3575b505050811b0160028301556109f6565b015160001960f88460031b161c19169055868080610de3565b81810151835560209485019460019093019290910190610dc8565b909150600285016000526020600020601f840160051c810160208510610e73575b90849392915b601f830160051c82018110610e645750506109c7565b60008155859450600101610e4e565b5080610e48565b6064907f4d6574616461746120686173682063616e6e6f7420626520656d7074790000006040519162461bcd60e51b835260206004840152601d6024840152820152fd5b606490745469746c652063616e6e6f7420626520656d70747960581b6040519162461bcd60e51b83526020600484015260156024840152820152fd5b6064907f4475726174696f6e206d7573742062652067726561746572207468616e2030006040519162461bcd60e51b835260206004840152601f6024840152820152fd5b6084907f54617267657420616d6f756e74206d75737420626520677265617465722074686040519162461bcd60e51b835260206004840152602480840152820152630616e20360e41b6064820152fd5b6084907f496e73756666696369656e742063616d706169676e206372656174696f6e20666040519162461bcd60e51b8352602060048401526022602484015282015261656560f01b6064820152fd5b3461019e57600036600319011261019e576001546040516001600160a01b039091168152602090f35b3461019e57600036600319011261019e5761101f61212f565b6110276121e5565b6001805460ff60a01b1916600160a01b1790556040513381527f62e78cea01bee320cd4e420270b5ea74000d11b0c9f74754ebdbfc544b05a25890602090a1005b3461019e57602036600319011261019e5760043561108461212f565b801515806110b2575b61109690612282565b6000908152600460205260409020600801805461ff0019169055005b5060035481111561108d565b3461019e57604036600319011261019e576110d7611f66565b6001600160a01b031660009081526008602052604090208054602435919082101561019e5760209161110891611f92565b90546040519160031b1c8152f35b3461019e57600036600319011261019e5761112f61212f565b600180546001600160a01b031981169091556000906001600160a01b03167f8be0079c531659141344cd1fd0a4f28419497f9722a3daafe3b4186f6b6457e08280a3005b3461019e57602036600319011261019e57600435801515806112aa575b61119990612282565b600052600460205260c060406000206040516111b481611e25565b8154815260018201546001600160a01b031660208201526111d760028301611e80565b60408201526111e860038301611e80565b60608201526111f960048301611e80565b608082015260058201549060a0810192828452610160600682015494868401938685526007840154908160e0820152600a60088601549560ff8716151561010084015260ff61012084019760081c16151587526009810154610140840152015493849101528042101560001461129957506000925b51151593519051111593604051958652602086015260408501526060840152608083015260a0820152f35b6112a49042906121d8565b9261126e565b50600354811115611190565b3461019e57600036600319011261019e576020600254604051908152f35b3461019e57602036600319011261019e576004356112f061212f565b6112f861222c565b6002548082116113b6574782116113715781611313916121d8565b60025560008080808460018060a01b0360015416828215611368575bf1156103ab576040519081527fc0819c13be868895eb93e40eaceb96de976442fa1d404e5c55f14bb65a8c489a60203392a26001600055005b506108fc61132f565b60405162461bcd60e51b815260206004820152601d60248201527f496e73756666696369656e7420636f6e74726163742062616c616e63650000006044820152606490fd5b60405162461bcd60e51b815260206004820152601860248201527f496e73756666696369656e74206665652062616c616e636500000000000000006044820152606490fd5b3461019e57600036600319011261019e57602060ff60015460a01c166040519015158152f35b3461019e57602036600319011261019e5760043561143d612391565b508015158061151c575b61145090612282565b60005260046020526102d46040600020600a6040519161146f83611e25565b8054835260018101546001600160a01b0316602084015261149260028201611e80565b60408401526114a360038201611e80565b60608401526114b460048201611e80565b6080840152600581015460a0840152600681015460c0840152600781015460e084015260ff6008820154818116151561010086015260081c16151561012084015260098101546101408401520154610160820152604051918291602083526020830190611ff2565b50600354811115611447565b3461019e5761153636611fc0565b9060005260066020526040600020805482101561019e5760609161155991611fd6565b5060018060a01b0381541690600260018201549101549060405192835260208301526040820152f35b3461019e57600036600319011261019e5761159b61212f565b60015460ff8160a01c16156115e25760ff60a01b19166001556040513381527f5db9ee0a495bf2e6ff9c91a7834c1ba4fdd244a5e8aa4e537bd38aeae4b073aa90602090a1005b60405162461bcd60e51b815260206004820152601460248201527314185d5cd8589b194e881b9bdd081c185d5cd95960621b6044820152606490fd5b3461019e57602036600319011261019e5760043561163a61212f565b801515806116bd575b61164c90612282565b806000526004602052600760406000200154421015611685576000908152600460205260409020600801805461ff001916610100179055005b60405162461bcd60e51b815260206004820152601060248201526f10d85b5c185a59db88195e1c1a5c995960821b6044820152606490fd5b50600354811115611643565b3461019e57604036600319011261019e576116e2611f66565b6001600160a01b031660009081526007602052604090208054602435919082101561019e5760209161110891611f92565b3461019e57602036600319011261019e5760048035600090815260209190915260409020805460018201546001600160a01b03169161175460028201611e80565b61176060038301611e80565b9161176d60048201611e80565b926005820154936006830154600784015491600885015493600986015495600a0154966040519a8b9a8b5260208b01526101808060408c01528a016117b191611f26565b89810360608b01526117c291611f26565b88810360808a01526117d391611f26565b9560a088015260c087015260e086015260ff8116151561010086015260081c60ff1615156101208501526101408401526101608301520390f35b3461019e5760208060031936011261019e57600435801515806119f2575b61183490612282565b806000526004825261185360ff60086040600020015460081c166122c4565b60008181526004835260409020600101546001600160a01b0390811633036119b6578160005260048352611891600760406000200154421015612309565b61189961222c565b81600052600483526040600020600881019182549160ff83166119715760068101938454936005830154851061192c5760ff1916600190811790915501546000928392839283929116828215611923575bf1156103ab575460405190815233927f076f7a439d190ed0f7882eacff83199cda95f20b1cf940a11192a967e6e7cdcf91a36001600055005b506108fc6118ea565b60405162461bcd60e51b815260048101899052601b60248201527f43616d706169676e20746172676574206e6f74207265616368656400000000006044820152606490fd5b60405162461bcd60e51b815260048101879052601760248201527f46756e647320616c72656164792077697468647261776e0000000000000000006044820152606490fd5b60405162461bcd60e51b81526004810184905260146024820152732737ba1031b0b6b830b4b3b71031b932b0ba37b960611b6044820152606490fd5b5060035481111561182b565b60208060031936011261019e576004359081151580611cea575b611a2190612282565b8160005260048152611a4060ff60086040600020015460081c166122c4565b8160005260048152600760406000200154421015611cb157611a606121e5565b611a6861222c565b3415611c615760008281526004825260409020600101546001600160a01b03919082163314611c1357826000526004815260406000209160058252604060002033600052825260406000205415611be8575b836000526005825260406000203360005282526040600020611add348254612196565b905560068301611aee348254612196565b815584600052600683526040600020604051611b0981611e42565b3381528481019134835260408201904282528054600160401b811015610cc457611b3891600182018155611fd6565b939093611bd25760059560029351166001600160601b0360a01b85541617845551600184015551910155604051348152857f0a4a91237423e0a1766a761c7cb029311d8b95d6b1b81db1b949a70c98b4e08e853393a354920154821015611ba1575b6001600055005b7f318daf69d77e946364e804495b2184222324b99fddeb42ab5fd25a919f596e8c91604051908152a2808080611b9a565b634e487b7160e01b600052600060045260246000fd5b600a8301611bf68154612187565b90553360005260088252611c0e8460406000206121a3565b611aba565b6084906040519062461bcd60e51b82526004820152602160248201527f43616e6e6f7420636f6e7472696275746520746f206f776e2063616d706169676044820152603760f91b6064820152fd5b6084906040519062461bcd60e51b82526004820152602360248201527f436f6e747269627574696f6e206d75737420626520677265617465722074686160448201526206e20360ec1b6064820152fd5b6064906040519062461bcd60e51b82526004820152601260248201527110d85b5c185a59db881a185cc8195b99195960721b6044820152fd5b50600354821115611a18565b3461019e57602036600319011261019e5760043580151580611ddf575b611d1c90612282565b600052600460205260206040600020604051611d3781611e25565b8154815260018201546001600160a01b031683820152611d5960028301611e80565b6040820152611d6a60038301611e80565b6060820152611d7b60048301611e80565b60808201526005820154908160a0820152610160600a6006850154948560c0850152600781015460e085015260ff6008820154818116151561010087015260081c161515610120850152600981015461014085015201549101526040519110158152f35b50600354811115611d13565b90600182811c92168015611e1b575b6020831014611e0557565b634e487b7160e01b600052602260045260246000fd5b91607f1691611dfa565b610180810190811067ffffffffffffffff821117610cc457604052565b6060810190811067ffffffffffffffff821117610cc457604052565b90601f8019910116810190811067ffffffffffffffff821117610cc457604052565b9060405191826000825492611e9484611deb565b908184526001948581169081600014611f035750600114611ec0575b5050611ebe92500383611e5e565b565b9093915060005260209081600020936000915b818310611eeb575050611ebe93508201013880611eb0565b85548884018501529485019487945091830191611ed3565b915050611ebe94506020925060ff191682840152151560051b8201013880611eb0565b919082519283825260005b848110611f52575050826000602080949584010152601f8019910116010190565b602081830181015184830182015201611f31565b600435906001600160a01b038216820361019e57565b602435906001600160a01b038216820361019e57565b8054821015611faa5760005260206000200190600090565b634e487b7160e01b600052603260045260246000fd5b604090600319011261019e576004359060243590565b8054821015611faa576000526003602060002091020190600090565b908151815260018060a01b03602083015116602082015261204c61203a6120286040850151610180806040870152850190611f26565b60608501518482036060860152611f26565b60808401518382036080850152611f26565b9160a081015160a083015260c081015160c083015260e081015160e0830152610100808201511515908301526101208082015115159083015261014080820151908301526101608091015191015290565b81601f8201121561019e5780359067ffffffffffffffff8211610cc457604051926120d2601f8401601f191660200185611e5e565b8284526020838301011161019e57816000926020809301838601378301015290565b6020908160408183019282815285518094520193019160005b82811061211b575050505090565b83518552938101939281019260010161210d565b6001546001600160a01b0316330361214357565b606460405162461bcd60e51b815260206004820152602060248201527f4f776e61626c653a2063616c6c6572206973206e6f7420746865206f776e65726044820152fd5b6000198114610be65760010190565b91908201809211610be657565b8054600160401b811015610cc4576121c091600182018155611f92565b819291549060031b91821b91600019901b1916179055565b91908203918211610be657565b60ff60015460a01c166121f457565b60405162461bcd60e51b815260206004820152601060248201526f14185d5cd8589b194e881c185d5cd95960821b6044820152606490fd5b60026000541461223d576002600055565b60405162461bcd60e51b815260206004820152601f60248201527f5265656e7472616e637947756172643a207265656e7472616e742063616c6c006044820152606490fd5b1561228957565b60405162461bcd60e51b8152602060048201526013602482015272125b9d985b1a590818d85b5c185a59db881251606a1b6044820152606490fd5b156122cb57565b60405162461bcd60e51b815260206004820152601660248201527543616d706169676e206973206e6f742061637469766560501b6044820152606490fd5b1561231057565b60405162461bcd60e51b815260206004820152601560248201527443616d706169676e207374696c6c2061637469766560581b6044820152606490fd5b1561235457565b60405162461bcd60e51b8152602060048201526015602482015274139bc818dbdb9d1c9a589d5d1a5bdb88199bdd5b99605a1b6044820152606490fd5b6040519061239e82611e25565b8161016060009182815282602082015260606040820152606080820152606060808201528260a08201528260c08201528260e08201528261010082015282610120820152826101408201520152565b67ffffffffffffffff8111610cc45760051b60200190565b8051821015611faa5760209160051b010190565b811515806126b9575b1561268457600380549290600060015b8581111561264457508084101561261b578084916124508584612196565b11612608575b5050612461826123ed565b60409161247083519283611e5e565b838252601f1961247f856123ed565b0160005b8181106125f1575050600091829460015b88811115806125e8575b156125dc5780600052600460209080825289886000209160088084015491829160ff9384911c1693846124e1575b505050505050506124dc90612187565b612494565b8c908e989e101561250d575b505050505050506125006124dc91612187565b969038808080808d6124cc565b936125009693600a9361256e6125d098946124dc9b9f988f8161256292519a6125358c611e25565b89548c5260018a01546001600160a01b0316908c015261255760028a01611e80565b908b01528701611e80565b60608901528501611e80565b6080870152600584015460a0870152600684015460c0870152600784015460e08701521615156101008501521515610120840152600981015461014084015201546101608201526125bf8288612405565b526125ca8187612405565b50612187565b9591388080808b6124ed565b50509550505050505090565b5081851061249e565b6020906125fc612391565b82828701015201612483565b6126139293506121d8565b908238612456565b50505050506040516020810181811067ffffffffffffffff821117610cc4576040526000815290565b80600052600460205260ff60088060406000200154901c1661266f575b61266a90612187565b612432565b9061267c61266a91612187565b919050612661565b60405162461bcd60e51b815260206004820152600d60248201526c125b9d985b1a59081b1a5b5a5d609a1b6044820152606490fd5b50606482111561242256fea26469706673582212202709c206af85d2f595205342d7025bd7e55e48292e40bd37d12283c9041958a364736f6c63430008130033","opcodes":"PUSH1 0x80 DUP1 PUSH1 0x40 MSTORE CALLVALUE PUSH2 0x63 JUMPI PUSH1 0x1 PUSH1 0x0 SSTORE PUSH1 0x1 SLOAD CALLER PUSH1 0x1 DUP1 PUSH1 0xA0 SHL SUB DUP3 AND PUSH32 0x8BE0079C531659141344CD1FD0A4F28419497F9722A3DAAFE3B4186F6B6457E0 PUSH1 0x0 DUP1 LOG3 PUSH1 0x1 PUSH1 0x1 PUSH1 0xA8 SHL SUB NOT AND CALLER PUSH1 0xFF PUSH1 0xA0 SHL NOT AND OR PUSH1 0x1 SSTORE PUSH2 0x26FA SWAP1 DUP2 PUSH2 0x69 DUP3 CODECOPY RETURN JUMPDEST PUSH1 0x0 DUP1 REVERT INVALID PUSH1 0x80 PUSH1 0x40 MSTORE PUSH1 0x4 CALLDATASIZE LT ISZERO PUSH2 0x1B JUMPI JUMPDEST CALLDATASIZE ISZERO PUSH2 0x19 JUMPI PUSH1 0x0 DUP1 REVERT JUMPDEST STOP JUMPDEST PUSH1 0x0 CALLDATALOAD PUSH1 0xE0 SHR DUP1 PUSH4 0x6DB57BB EQ PUSH2 0x1CF6 JUMPI DUP1 PUSH4 0xB7EF89B EQ PUSH2 0x19FE JUMPI DUP1 PUSH4 0x14169E2A EQ PUSH2 0x180D JUMPI DUP1 PUSH4 0x141961BC EQ PUSH2 0x1713 JUMPI DUP1 PUSH4 0x19AC74BD EQ PUSH2 0x16C9 JUMPI DUP1 PUSH4 0x1FDC217C EQ PUSH2 0x161E JUMPI DUP1 PUSH4 0x3D891F59 EQ PUSH2 0x2EF JUMPI DUP1 PUSH4 0x3F4BA83A EQ PUSH2 0x1582 JUMPI DUP1 PUSH4 0x539157BD EQ PUSH2 0x1528 JUMPI DUP1 PUSH4 0x5598F8CC EQ PUSH2 0x1421 JUMPI DUP1 PUSH4 0x5C975ABB EQ PUSH2 0x13FB JUMPI DUP1 PUSH4 0x5E318E07 EQ PUSH2 0x12D4 JUMPI DUP1 PUSH4 0x60C6D8AE EQ PUSH2 0x12B6 JUMPI DUP1 PUSH4 0x660BF9DE EQ PUSH2 0x1173 JUMPI DUP1 PUSH4 0x715018A6 EQ PUSH2 0x1116 JUMPI DUP1 PUSH4 0x7331FA95 EQ PUSH2 0x10BE JUMPI DUP1 PUSH4 0x7ECA30FE EQ PUSH2 0x1068 JUMPI DUP1 PUSH4 0x8456CB59 EQ PUSH2 0x1006 JUMPI DUP1 PUSH4 0x8DA5CB5B EQ PUSH2 0xFDD JUMPI DUP1 PUSH4 0x980F2E66 EQ PUSH2 0x841 JUMPI DUP1 PUSH4 0xA1E5084C EQ PUSH2 0x7C9 JUMPI DUP1 PUSH4 0xB6531458 EQ PUSH2 0x751 JUMPI DUP1 PUSH4 0xC4B8D53D EQ PUSH2 0x72E JUMPI DUP1 PUSH4 0xD2F0BE99 EQ PUSH2 0x5AB JUMPI DUP1 PUSH4 0xD3B0C32C EQ PUSH2 0x4C1 JUMPI DUP1 PUSH4 0xDAE21C58 EQ PUSH2 0x3C0 JUMPI DUP1 PUSH4 0xDB2E21BC EQ PUSH2 0x364 JUMPI DUP1 PUSH4 0xDFE6B5D6 EQ PUSH2 0x337 JUMPI DUP1 PUSH4 0xE081DBF9 EQ PUSH2 0x2EF JUMPI DUP1 PUSH4 0xE36465A3 EQ PUSH2 0x267 JUMPI DUP1 PUSH4 0xF2FDE38B EQ PUSH2 0x1A3 JUMPI PUSH4 0xFCA604D7 SUB PUSH2 0xE JUMPI CALLVALUE PUSH2 0x19E JUMPI PUSH1 0x0 CALLDATASIZE PUSH1 0x3 NOT ADD SLT PUSH2 0x19E JUMPI PUSH1 0x20 PUSH1 0x3 SLOAD PUSH1 0x40 MLOAD SWAP1 DUP2 MSTORE RETURN JUMPDEST PUSH1 0x0 DUP1 REVERT JUMPDEST CALLVALUE PUSH2 0x19E JUMPI PUSH1 0x20 CALLDATASIZE PUSH1 0x3 NOT ADD SLT PUSH2 0x19E JUMPI PUSH2 0x1BC PUSH2 0x1F66 JUMP JUMPDEST PUSH2 0x1C4 PUSH2 0x212F JUMP JUMPDEST PUSH1 0x1 PUSH1 0x1 PUSH1 0xA0 SHL SUB SWAP1 DUP2 AND SWAP1 DUP2 ISZERO PUSH2 0x213 JUMPI PUSH1 0x1 SLOAD DUP3 PUSH1 0x1 PUSH1 0x1 PUSH1 0x60 SHL SUB PUSH1 0xA0 SHL DUP3 AND OR PUSH1 0x1 SSTORE AND PUSH32 0x8BE0079C531659141344CD1FD0A4F28419497F9722A3DAAFE3B4186F6B6457E0 PUSH1 0x0 DUP1 LOG3 STOP JUMPDEST PUSH1 0x40 MLOAD PUSH3 0x461BCD PUSH1 0xE5 SHL DUP2 MSTORE PUSH1 0x20 PUSH1 0x4 DUP3 ADD MSTORE PUSH1 0x26 PUSH1 0x24 DUP3 ADD MSTORE PUSH32 0x4F776E61626C653A206E6577206F776E657220697320746865207A65726F2061 PUSH1 0x44 DUP3 ADD MSTORE PUSH6 0x646472657373 PUSH1 0xD0 SHL PUSH1 0x64 DUP3 ADD MSTORE PUSH1 0x84 SWAP1 REVERT JUMPDEST CALLVALUE PUSH2 0x19E JUMPI PUSH1 0x20 DUP1 PUSH1 0x3 NOT CALLDATASIZE ADD SLT PUSH2 0x19E JUMPI PUSH1 0x1 PUSH1 0x1 PUSH1 0xA0 SHL SUB PUSH2 0x289 PUSH2 0x1F66 JUMP JUMPDEST AND PUSH1 0x0 MSTORE PUSH1 0x8 DUP2 MSTORE PUSH1 0x40 PUSH1 0x0 KECCAK256 SWAP1 PUSH1 0x40 MLOAD SWAP1 DUP2 DUP2 DUP5 SLOAD SWAP2 DUP3 DUP2 MSTORE ADD SWAP4 PUSH1 0x0 MSTORE DUP2 PUSH1 0x0 KECCAK256 SWAP2 PUSH1 0x0 SWAP1 JUMPDEST DUP3 DUP3 LT PUSH2 0x2D8 JUMPI PUSH2 0x2D4 DUP6 PUSH2 0x2C8 DUP2 DUP10 SUB DUP3 PUSH2 0x1E5E JUMP JUMPDEST PUSH1 0x40 MLOAD SWAP2 DUP3 SWAP2 DUP3 PUSH2 0x20F4 JUMP JUMPDEST SUB SWAP1 RETURN JUMPDEST DUP4 SLOAD DUP7 MSTORE SWAP5 DUP6 ADD SWAP5 PUSH1 0x1 SWAP4 DUP5 ADD SWAP4 SWAP1 SWAP2 ADD SWAP1 PUSH2 0x2B1 JUMP JUMPDEST CALLVALUE PUSH2 0x19E JUMPI PUSH1 0x40 CALLDATASIZE PUSH1 0x3 NOT ADD SLT PUSH2 0x19E JUMPI PUSH2 0x308 PUSH2 0x1F7C JUMP JUMPDEST PUSH1 0x4 CALLDATALOAD PUSH1 0x0 MSTORE PUSH1 0x5 PUSH1 0x20 MSTORE PUSH1 0x40 PUSH1 0x0 KECCAK256 SWAP1 PUSH1 0x1 DUP1 PUSH1 0xA0 SHL SUB AND PUSH1 0x0 MSTORE PUSH1 0x20 MSTORE PUSH1 0x20 PUSH1 0x40 PUSH1 0x0 KECCAK256 SLOAD PUSH1 0x40 MLOAD SWAP1 DUP2 MSTORE RETURN JUMPDEST CALLVALUE PUSH2 0x19E JUMPI PUSH1 0x0 CALLDATASIZE PUSH1 0x3 NOT ADD SLT PUSH2 0x19E JUMPI PUSH1 0x60 PUSH1 0x3 SLOAD PUSH1 0x2 SLOAD SELFBALANCE SWAP1 PUSH1 0x40 MLOAD SWAP3 DUP4 MSTORE PUSH1 0x20 DUP4 ADD MSTORE PUSH1 0x40 DUP3 ADD MSTORE RETURN JUMPDEST CALLVALUE PUSH2 0x19E JUMPI PUSH1 0x0 CALLDATASIZE PUSH1 0x3 NOT ADD SLT PUSH2 0x19E JUMPI PUSH2 0x37D PUSH2 0x212F JUMP JUMPDEST PUSH2 0x385 PUSH2 0x222C JUMP JUMPDEST PUSH1 0x0 DUP1 DUP1 DUP1 SELFBALANCE PUSH1 0x1 DUP1 PUSH1 0xA0 SHL SUB PUSH1 0x1 SLOAD AND DUP3 DUP3 ISZERO PUSH2 0x3B7 JUMPI JUMPDEST CALL ISZERO PUSH2 0x3AB JUMPI PUSH1 0x1 PUSH1 0x0 SSTORE STOP JUMPDEST PUSH1 0x40 MLOAD RETURNDATASIZE PUSH1 0x0 DUP3 RETURNDATACOPY RETURNDATASIZE SWAP1 REVERT JUMPDEST POP PUSH2 0x8FC PUSH2 0x39E JUMP JUMPDEST CALLVALUE PUSH2 0x19E JUMPI PUSH1 0x40 CALLDATASIZE PUSH1 0x3 NOT ADD SLT PUSH2 0x19E JUMPI PUSH1 0x4 CALLDATALOAD PUSH2 0x3DC PUSH2 0x1F7C JUMP JUMPDEST SWAP1 PUSH2 0x3E5 PUSH2 0x212F JUMP JUMPDEST PUSH2 0x3ED PUSH2 0x222C JUMP JUMPDEST DUP1 PUSH1 0x0 MSTORE PUSH1 0x20 PUSH1 0x5 DUP2 MSTORE PUSH1 0x40 PUSH1 0x0 KECCAK256 SWAP3 PUSH1 0x1 DUP1 PUSH1 0xA0 SHL SUB AND SWAP3 DUP4 PUSH1 0x0 MSTORE DUP2 MSTORE PUSH2 0x41C PUSH1 0x40 PUSH1 0x0 KECCAK256 SLOAD ISZERO ISZERO PUSH2 0x234D JUMP JUMPDEST DUP2 PUSH1 0x0 MSTORE PUSH1 0x5 DUP2 MSTORE PUSH1 0x40 PUSH1 0x0 KECCAK256 DUP4 PUSH1 0x0 MSTORE DUP2 MSTORE PUSH1 0x40 PUSH1 0x0 KECCAK256 SLOAD SWAP1 DUP3 PUSH1 0x0 MSTORE PUSH1 0x5 DUP2 MSTORE PUSH1 0x40 PUSH1 0x0 KECCAK256 DUP5 PUSH1 0x0 MSTORE DUP2 MSTORE PUSH1 0x0 PUSH1 0x40 DUP2 KECCAK256 SSTORE DUP3 PUSH1 0x0 MSTORE PUSH1 0x4 DUP2 MSTORE PUSH1 0x6 PUSH1 0x40 PUSH1 0x0 KECCAK256 ADD PUSH2 0x46B DUP4 DUP3 SLOAD PUSH2 0x21D8 JUMP JUMPDEST SWAP1 SSTORE PUSH1 0x0 DUP3 DUP6 DUP2 ISZERO PUSH2 0x4B7 JUMPI JUMPDEST PUSH1 0x0 SWAP3 DUP4 SWAP3 DUP4 SWAP3 DUP4 SWAP3 CALL ISZERO PUSH2 0x3AB JUMPI PUSH32 0x7A482FDEB6BC9A1376F597068A214A7A39472BB2EFF1B8CAD21BA04F49DDCA1B SWAP2 PUSH1 0x40 MLOAD SWAP1 DUP2 MSTORE LOG3 PUSH1 0x1 PUSH1 0x0 SSTORE STOP JUMPDEST PUSH2 0x8FC SWAP3 POP PUSH2 0x478 JUMP JUMPDEST CALLVALUE PUSH2 0x19E JUMPI PUSH1 0x20 DUP1 PUSH1 0x3 NOT CALLDATASIZE ADD SLT PUSH2 0x19E JUMPI PUSH1 0x4 CALLDATALOAD PUSH1 0x0 MSTORE PUSH1 0x6 DUP2 MSTORE PUSH1 0x40 PUSH1 0x0 KECCAK256 SWAP1 DUP2 SLOAD PUSH2 0x4EE DUP2 PUSH2 0x23ED JUMP JUMPDEST SWAP1 PUSH2 0x4FC PUSH1 0x40 MLOAD SWAP3 DUP4 PUSH2 0x1E5E JUMP JUMPDEST DUP1 DUP3 MSTORE DUP3 DUP3 ADD DUP1 SWAP5 PUSH1 0x0 MSTORE DUP4 PUSH1 0x0 KECCAK256 PUSH1 0x0 SWAP2 JUMPDEST DUP4 DUP4 LT PUSH2 0x56E JUMPI PUSH1 0x40 DUP1 MLOAD DUP8 DUP2 MSTORE DUP7 MLOAD DUP2 DUP10 ADD DUP2 SWAP1 MSTORE DUP10 SWAP3 DUP3 ADD SWAP1 DUP10 PUSH1 0x0 JUMPDEST DUP3 DUP2 LT PUSH2 0x53B JUMPI DUP5 DUP5 SUB DUP6 RETURN JUMPDEST DUP6 MLOAD DUP1 MLOAD PUSH1 0x1 PUSH1 0x1 PUSH1 0xA0 SHL SUB AND DUP6 MSTORE DUP1 DUP4 ADD MLOAD DUP6 DUP5 ADD MSTORE PUSH1 0x40 SWAP1 DUP2 ADD MLOAD SWAP1 DUP6 ADD MSTORE SWAP5 DUP2 ADD SWAP5 PUSH1 0x60 SWAP1 SWAP4 ADD SWAP3 PUSH1 0x1 ADD PUSH2 0x52E JUMP JUMPDEST PUSH1 0x3 DUP7 PUSH1 0x1 SWAP3 PUSH1 0x40 MLOAD PUSH2 0x580 DUP2 PUSH2 0x1E42 JUMP JUMPDEST DUP5 DUP1 PUSH1 0xA0 SHL SUB DUP7 SLOAD AND DUP2 MSTORE DUP5 DUP7 ADD SLOAD DUP4 DUP3 ADD MSTORE PUSH1 0x2 DUP7 ADD SLOAD PUSH1 0x40 DUP3 ADD MSTORE DUP2 MSTORE ADD SWAP3 ADD SWAP3 ADD SWAP2 SWAP1 PUSH2 0x50F JUMP JUMPDEST CALLVALUE PUSH2 0x19E JUMPI PUSH1 0x20 DUP1 PUSH1 0x3 NOT CALLDATASIZE ADD SLT PUSH2 0x19E JUMPI PUSH1 0x4 CALLDATALOAD DUP1 ISZERO ISZERO DUP1 PUSH2 0x722 JUMPI JUMPDEST PUSH2 0x5D2 SWAP1 PUSH2 0x2282 JUMP JUMPDEST DUP1 PUSH1 0x0 MSTORE PUSH1 0x4 DUP3 MSTORE PUSH2 0x5F1 PUSH1 0xFF PUSH1 0x8 PUSH1 0x40 PUSH1 0x0 KECCAK256 ADD SLOAD PUSH1 0x8 SHR AND PUSH2 0x22C4 JUMP JUMPDEST DUP1 PUSH1 0x0 MSTORE PUSH1 0x4 DUP3 MSTORE PUSH2 0x60D PUSH1 0x7 PUSH1 0x40 PUSH1 0x0 KECCAK256 ADD SLOAD TIMESTAMP LT ISZERO PUSH2 0x2309 JUMP JUMPDEST PUSH2 0x615 PUSH2 0x222C JUMP JUMPDEST DUP1 PUSH1 0x0 MSTORE PUSH1 0x4 DUP3 MSTORE PUSH1 0x40 PUSH1 0x0 KECCAK256 PUSH1 0x5 PUSH1 0x6 DUP3 ADD SLOAD SWAP2 ADD SLOAD GT ISZERO PUSH2 0x6DD JUMPI DUP1 PUSH1 0x0 MSTORE PUSH1 0x5 DUP3 MSTORE PUSH1 0x40 PUSH1 0x0 KECCAK256 CALLER PUSH1 0x0 MSTORE DUP3 MSTORE PUSH2 0x655 PUSH1 0x40 PUSH1 0x0 KECCAK256 SLOAD ISZERO ISZERO PUSH2 0x234D JUMP JUMPDEST DUP1 PUSH1 0x0 MSTORE PUSH1 0x5 DUP3 MSTORE PUSH1 0x40 PUSH1 0x0 KECCAK256 CALLER PUSH1 0x0 MSTORE DUP3 MSTORE PUSH1 0x40 PUSH1 0x0 KECCAK256 SLOAD SWAP2 DUP2 PUSH1 0x0 MSTORE PUSH1 0x5 DUP2 MSTORE PUSH1 0x40 PUSH1 0x0 KECCAK256 CALLER PUSH1 0x0 MSTORE DUP2 MSTORE PUSH1 0x0 PUSH1 0x40 DUP2 KECCAK256 SSTORE DUP3 PUSH1 0x0 DUP2 ISZERO PUSH2 0x6D4 JUMPI JUMPDEST PUSH1 0x0 DUP1 DUP1 SWAP4 DUP2 SWAP4 CALLER SWAP1 CALL ISZERO PUSH2 0x3AB JUMPI PUSH32 0x7A482FDEB6BC9A1376F597068A214A7A39472BB2EFF1B8CAD21BA04F49DDCA1B SWAP1 PUSH1 0x40 MLOAD SWAP4 DUP5 MSTORE CALLER SWAP4 LOG3 PUSH1 0x1 PUSH1 0x0 SSTORE STOP JUMPDEST POP PUSH2 0x8FC PUSH2 0x693 JUMP JUMPDEST PUSH1 0x40 MLOAD PUSH3 0x461BCD PUSH1 0xE5 SHL DUP2 MSTORE PUSH1 0x4 DUP2 ADD DUP4 SWAP1 MSTORE PUSH1 0x17 PUSH1 0x24 DUP3 ADD MSTORE PUSH32 0x43616D706169676E20776173207375636365737366756C000000000000000000 PUSH1 0x44 DUP3 ADD MSTORE PUSH1 0x64 SWAP1 REVERT JUMPDEST POP PUSH1 0x3 SLOAD DUP2 GT ISZERO PUSH2 0x5C9 JUMP JUMPDEST CALLVALUE PUSH2 0x19E JUMPI PUSH1 0x0 CALLDATASIZE PUSH1 0x3 NOT ADD SLT PUSH2 0x19E JUMPI PUSH1 0x20 PUSH1 0x40 MLOAD PUSH8 0xDE0B6B3A7640000 DUP2 MSTORE RETURN JUMPDEST CALLVALUE PUSH2 0x19E JUMPI PUSH2 0x768 PUSH2 0x762 CALLDATASIZE PUSH2 0x1FC0 JUMP JUMPDEST SWAP1 PUSH2 0x2419 JUMP JUMPDEST PUSH1 0x40 MLOAD PUSH1 0x20 SWAP2 DUP3 DUP3 ADD SWAP3 DUP1 DUP4 MSTORE DUP2 MLOAD DUP1 SWAP5 MSTORE PUSH1 0x40 DUP4 ADD SWAP4 DUP2 PUSH1 0x40 DUP3 PUSH1 0x5 SHL DUP7 ADD ADD SWAP4 ADD SWAP2 PUSH1 0x0 SWAP6 JUMPDEST DUP3 DUP8 LT PUSH2 0x79D JUMPI DUP6 DUP6 SUB DUP7 RETURN JUMPDEST SWAP1 SWAP2 SWAP3 SWAP4 DUP3 DUP1 PUSH2 0x7B9 PUSH1 0x1 SWAP4 PUSH1 0x3F NOT DUP11 DUP3 SUB ADD DUP7 MSTORE DUP9 MLOAD PUSH2 0x1FF2 JUMP JUMPDEST SWAP7 ADD SWAP3 ADD SWAP7 ADD SWAP6 SWAP3 SWAP2 SWAP1 SWAP3 PUSH2 0x790 JUMP JUMPDEST CALLVALUE PUSH2 0x19E JUMPI PUSH1 0x20 DUP1 PUSH1 0x3 NOT CALLDATASIZE ADD SLT PUSH2 0x19E JUMPI PUSH1 0x1 PUSH1 0x1 PUSH1 0xA0 SHL SUB PUSH2 0x7EB PUSH2 0x1F66 JUMP JUMPDEST AND PUSH1 0x0 MSTORE PUSH1 0x7 DUP2 MSTORE PUSH1 0x40 PUSH1 0x0 KECCAK256 SWAP1 PUSH1 0x40 MLOAD SWAP1 DUP2 DUP2 DUP5 SLOAD SWAP2 DUP3 DUP2 MSTORE ADD SWAP4 PUSH1 0x0 MSTORE DUP2 PUSH1 0x0 KECCAK256 SWAP2 PUSH1 0x0 SWAP1 JUMPDEST DUP3 DUP3 LT PUSH2 0x82A JUMPI PUSH2 0x2D4 DUP6 PUSH2 0x2C8 DUP2 DUP10 SUB DUP3 PUSH2 0x1E5E JUMP JUMPDEST DUP4 SLOAD DUP7 MSTORE SWAP5 DUP6 ADD SWAP5 PUSH1 0x1 SWAP4 DUP5 ADD SWAP4 SWAP1 SWAP2 ADD SWAP1 PUSH2 0x813 JUMP JUMPDEST PUSH1 0xA0 CALLDATASIZE PUSH1 0x3 NOT ADD SLT PUSH2 0x19E JUMPI PUSH1 0x4 CALLDATALOAD PUSH8 0xFFFFFFFFFFFFFFFF DUP2 GT PUSH2 0x19E JUMPI PUSH2 0x86D SWAP1 CALLDATASIZE SWAP1 PUSH1 0x4 ADD PUSH2 0x209D JUMP JUMPDEST PUSH1 0x24 CALLDATALOAD PUSH8 0xFFFFFFFFFFFFFFFF DUP2 GT PUSH2 0x19E JUMPI PUSH2 0x88D SWAP1 CALLDATASIZE SWAP1 PUSH1 0x4 ADD PUSH2 0x209D JUMP JUMPDEST PUSH1 0x44 SWAP2 DUP3 CALLDATALOAD PUSH8 0xFFFFFFFFFFFFFFFF DUP2 GT PUSH2 0x19E JUMPI PUSH2 0x8AF SWAP1 CALLDATASIZE SWAP1 PUSH1 0x4 ADD PUSH2 0x209D JUMP JUMPDEST SWAP3 PUSH1 0x84 CALLDATALOAD SWAP1 PUSH2 0x8BC PUSH2 0x21E5 JUMP JUMPDEST PUSH2 0x8C4 PUSH2 0x222C JUMP JUMPDEST PUSH8 0xDE0B6B3A7640000 CALLVALUE LT PUSH2 0xF8E JUMPI PUSH1 0x64 CALLDATALOAD ISZERO PUSH2 0xF3E JUMPI DUP2 ISZERO PUSH2 0xEFA JUMPI DUP3 MLOAD ISZERO PUSH2 0xEBE JUMPI DUP5 MLOAD ISZERO PUSH2 0xE7A JUMPI POP PUSH2 0x909 PUSH2 0x8FE PUSH1 0x3 SLOAD PUSH2 0x2187 JUMP JUMPDEST SWAP2 DUP3 PUSH1 0x3 SSTORE TIMESTAMP PUSH2 0x2196 JUMP JUMPDEST SWAP3 PUSH1 0x40 MLOAD SWAP3 PUSH2 0x917 DUP5 PUSH2 0x1E25 JUMP JUMPDEST DUP3 DUP5 MSTORE CALLER PUSH1 0x20 DUP6 ADD MSTORE PUSH1 0x40 DUP5 ADD MSTORE PUSH1 0x60 DUP4 ADD MSTORE DUP4 PUSH1 0x80 DUP4 ADD MSTORE PUSH1 0x64 CALLDATALOAD PUSH1 0xA0 DUP4 ADD MSTORE PUSH1 0x0 PUSH1 0xC0 DUP4 ADD MSTORE DUP3 PUSH1 0xE0 DUP4 ADD MSTORE PUSH1 0x0 PUSH2 0x100 DUP4 ADD MSTORE PUSH1 0x1 PUSH2 0x120 DUP4 ADD MSTORE TIMESTAMP PUSH2 0x140 DUP4 ADD MSTORE PUSH1 0x0 PUSH2 0x160 DUP4 ADD MSTORE PUSH1 0x0 MSTORE PUSH1 0x4 PUSH1 0x20 MSTORE PUSH1 0x40 PUSH1 0x0 KECCAK256 SWAP1 DUP1 MLOAD DUP3 SSTORE PUSH1 0x1 DUP3 ADD PUSH1 0x1 DUP1 PUSH1 0xA0 SHL SUB PUSH1 0x20 DUP4 ADD MLOAD AND PUSH1 0x1 PUSH1 0x1 PUSH1 0x60 SHL SUB PUSH1 0xA0 SHL DUP3 SLOAD AND OR SWAP1 SSTORE PUSH1 0x40 DUP2 ADD MLOAD DUP1 MLOAD SWAP1 PUSH8 0xFFFFFFFFFFFFFFFF DUP3 GT PUSH2 0xCC4 JUMPI DUP2 SWAP1 PUSH2 0x9BE PUSH1 0x2 DUP7 ADD SLOAD PUSH2 0x1DEB JUMP JUMPDEST PUSH1 0x1F DUP2 GT PUSH2 0xE27 JUMPI JUMPDEST POP PUSH1 0x20 SWAP1 PUSH1 0x1F DUP4 GT PUSH1 0x1 EQ PUSH2 0xDB5 JUMPI PUSH1 0x0 SWAP3 PUSH2 0xDAA JUMPI JUMPDEST POP POP DUP2 PUSH1 0x1 SHL SWAP2 PUSH1 0x0 NOT SWAP1 PUSH1 0x3 SHL SHR NOT AND OR PUSH1 0x2 DUP4 ADD SSTORE JUMPDEST PUSH1 0x60 DUP2 ADD MLOAD DUP1 MLOAD SWAP1 PUSH8 0xFFFFFFFFFFFFFFFF DUP3 GT PUSH2 0xCC4 JUMPI DUP2 SWAP1 PUSH2 0xA1C PUSH1 0x3 DUP7 ADD SLOAD PUSH2 0x1DEB JUMP JUMPDEST PUSH1 0x1F DUP2 GT PUSH2 0xD57 JUMPI JUMPDEST POP PUSH1 0x20 SWAP1 PUSH1 0x1F DUP4 GT PUSH1 0x1 EQ PUSH2 0xCE5 JUMPI PUSH1 0x0 SWAP3 PUSH2 0xCDA JUMPI JUMPDEST POP POP DUP2 PUSH1 0x1 SHL SWAP2 PUSH1 0x0 NOT SWAP1 PUSH1 0x3 SHL SHR NOT AND OR PUSH1 0x3 DUP4 ADD SSTORE JUMPDEST PUSH1 0x80 DUP2 ADD MLOAD DUP1 MLOAD SWAP1 PUSH8 0xFFFFFFFFFFFFFFFF DUP3 GT PUSH2 0xCC4 JUMPI PUSH2 0xA78 PUSH1 0x4 DUP6 ADD SLOAD PUSH2 0x1DEB JUMP JUMPDEST PUSH1 0x1F DUP2 GT PUSH2 0xC7D JUMPI JUMPDEST POP PUSH1 0x20 SWAP1 PUSH1 0x1F DUP4 GT PUSH1 0x1 EQ PUSH2 0xC07 JUMPI SWAP2 DUP1 PUSH1 0xA SWAP5 SWAP3 PUSH2 0x160 SWAP5 PUSH1 0x0 SWAP3 PUSH2 0xBFC JUMPI JUMPDEST POP POP DUP2 PUSH1 0x1 SHL SWAP2 PUSH1 0x0 NOT SWAP1 PUSH1 0x3 SHL SHR NOT AND OR PUSH1 0x4 DUP6 ADD SSTORE JUMPDEST PUSH1 0xA0 DUP2 ADD MLOAD PUSH1 0x5 DUP6 ADD SSTORE PUSH1 0xC0 DUP2 ADD MLOAD PUSH1 0x6 DUP6 ADD SSTORE PUSH1 0xE0 DUP2 ADD MLOAD PUSH1 0x7 DUP6 ADD SSTORE PUSH1 0x8 DUP5 ADD PUSH2 0x100 DUP3 ADD MLOAD ISZERO ISZERO DUP2 SLOAD PUSH1 0xFF PUSH2 0xFF00 PUSH2 0x120 DUP7 ADD MLOAD ISZERO ISZERO PUSH1 0x8 SHL AND SWAP3 AND SWAP1 PUSH2 0xFFFF NOT AND OR OR SWAP1 SSTORE PUSH2 0x140 DUP2 ADD MLOAD PUSH1 0x9 DUP6 ADD SSTORE ADD MLOAD SWAP2 ADD SSTORE CALLER PUSH1 0x0 MSTORE PUSH1 0x7 PUSH1 0x20 MSTORE PUSH2 0xB2D PUSH1 0x40 PUSH1 0x0 KECCAK256 PUSH1 0x3 SLOAD SWAP1 PUSH2 0x21A3 JUMP JUMPDEST PUSH1 0x2 SLOAD PUSH8 0xDE0B6B3A7640000 DUP2 ADD DUP1 SWAP2 GT PUSH2 0xBE6 JUMPI PUSH1 0x2 SSTORE PUSH8 0xDE0B6B3A7640000 CALLVALUE GT PUSH2 0xBA9 JUMPI JUMPDEST PUSH32 0x2E64DA7E06E88CCD84D69ECCB21119CA81E40E5648611E89EDFE888C8FA62597 PUSH1 0x3 SLOAD SWAP2 PUSH1 0x40 MLOAD SWAP1 PUSH1 0x64 CALLDATALOAD DUP3 MSTORE PUSH1 0x20 DUP3 ADD MSTORE PUSH1 0x60 PUSH1 0x40 DUP3 ADD MSTORE DUP1 PUSH2 0xB9F CALLER SWAP6 PUSH1 0x60 DUP4 ADD SWAP1 PUSH2 0x1F26 JUMP JUMPDEST SUB SWAP1 LOG3 PUSH1 0x1 PUSH1 0x0 SSTORE STOP JUMPDEST PUSH8 0xDE0B6B3A763FFFF NOT CALLVALUE ADD CALLVALUE DUP2 GT PUSH2 0xBE6 JUMPI PUSH1 0x0 DUP1 DUP1 DUP1 SWAP4 DUP2 DUP2 ISZERO PUSH2 0xBDD JUMPI JUMPDEST CALLER SWAP1 CALL PUSH2 0xB55 JUMPI PUSH1 0x40 MLOAD RETURNDATASIZE PUSH1 0x0 DUP3 RETURNDATACOPY RETURNDATASIZE SWAP1 REVERT JUMPDEST POP PUSH2 0x8FC PUSH2 0xBCA JUMP JUMPDEST PUSH4 0x4E487B71 PUSH1 0xE0 SHL PUSH1 0x0 MSTORE PUSH1 0x11 PUSH1 0x4 MSTORE PUSH1 0x24 PUSH1 0x0 REVERT JUMPDEST ADD MLOAD SWAP1 POP DUP9 DUP1 PUSH2 0xAA2 JUMP JUMPDEST SWAP1 PUSH1 0x4 DUP6 ADD PUSH1 0x0 MSTORE PUSH1 0x20 PUSH1 0x0 KECCAK256 SWAP2 PUSH1 0x0 JUMPDEST PUSH1 0x1F NOT DUP6 AND DUP2 LT PUSH2 0xC65 JUMPI POP SWAP3 PUSH1 0xA SWAP5 SWAP3 PUSH1 0x1 SWAP3 PUSH2 0x160 SWAP6 DUP4 PUSH1 0x1F NOT DUP2 AND LT PUSH2 0xC4C JUMPI JUMPDEST POP POP POP DUP2 SHL ADD PUSH1 0x4 DUP6 ADD SSTORE PUSH2 0xABA JUMP JUMPDEST ADD MLOAD PUSH1 0x0 NOT PUSH1 0xF8 DUP5 PUSH1 0x3 SHL AND SHR NOT AND SWAP1 SSTORE DUP9 DUP1 DUP1 PUSH2 0xC3C JUMP JUMPDEST SWAP2 SWAP3 PUSH1 0x20 PUSH1 0x1 DUP2 SWAP3 DUP7 DUP6 ADD MLOAD DUP2 SSTORE ADD SWAP5 ADD SWAP3 ADD PUSH2 0xC18 JUMP JUMPDEST PUSH1 0x4 DUP6 ADD PUSH1 0x0 MSTORE PUSH1 0x20 PUSH1 0x0 KECCAK256 PUSH1 0x1F DUP5 ADD PUSH1 0x5 SHR DUP2 ADD PUSH1 0x20 DUP6 LT PUSH2 0xCBD JUMPI JUMPDEST PUSH1 0x1F DUP4 ADD PUSH1 0x5 SHR DUP3 ADD DUP2 LT PUSH2 0xCB1 JUMPI POP POP PUSH2 0xA81 JUMP JUMPDEST PUSH1 0x0 DUP2 SSTORE PUSH1 0x1 ADD PUSH2 0xC9B JUMP JUMPDEST POP DUP1 PUSH2 0xC9B JUMP JUMPDEST PUSH4 0x4E487B71 PUSH1 0xE0 SHL PUSH1 0x0 MSTORE PUSH1 0x41 PUSH1 0x4 MSTORE PUSH1 0x24 PUSH1 0x0 REVERT JUMPDEST ADD MLOAD SWAP1 POP DUP7 DUP1 PUSH2 0xA3C JUMP JUMPDEST SWAP3 POP PUSH1 0x3 DUP6 ADD PUSH1 0x0 MSTORE PUSH1 0x20 PUSH1 0x0 KECCAK256 SWAP1 PUSH1 0x0 SWAP4 JUMPDEST PUSH1 0x1F NOT DUP5 AND DUP6 LT PUSH2 0xD3C JUMPI PUSH1 0x1 SWAP5 POP DUP4 PUSH1 0x1F NOT DUP2 AND LT PUSH2 0xD23 JUMPI JUMPDEST POP POP POP DUP2 SHL ADD PUSH1 0x3 DUP4 ADD SSTORE PUSH2 0xA54 JUMP JUMPDEST ADD MLOAD PUSH1 0x0 NOT PUSH1 0xF8 DUP5 PUSH1 0x3 SHL AND SHR NOT AND SWAP1 SSTORE DUP7 DUP1 DUP1 PUSH2 0xD13 JUMP JUMPDEST DUP2 DUP2 ADD MLOAD DUP4 SSTORE PUSH1 0x20 SWAP5 DUP6 ADD SWAP5 PUSH1 0x1 SWAP1 SWAP4 ADD SWAP3 SWAP1 SWAP2 ADD SWAP1 PUSH2 0xCF8 JUMP JUMPDEST SWAP1 SWAP2 POP PUSH1 0x3 DUP6 ADD PUSH1 0x0 MSTORE PUSH1 0x20 PUSH1 0x0 KECCAK256 PUSH1 0x1F DUP5 ADD PUSH1 0x5 SHR DUP2 ADD PUSH1 0x20 DUP6 LT PUSH2 0xDA3 JUMPI JUMPDEST SWAP1 DUP5 SWAP4 SWAP3 SWAP2 JUMPDEST PUSH1 0x1F DUP4 ADD PUSH1 0x5 SHR DUP3 ADD DUP2 LT PUSH2 0xD94 JUMPI POP POP PUSH2 0xA25 JUMP JUMPDEST PUSH1 0x0 DUP2 SSTORE DUP6 SWAP5 POP PUSH1 0x1 ADD PUSH2 0xD7E JUMP JUMPDEST POP DUP1 PUSH2 0xD78 JUMP JUMPDEST ADD MLOAD SWAP1 POP DUP7 DUP1 PUSH2 0x9DE JUMP JUMPDEST SWAP3 POP PUSH1 0x2 DUP6 ADD PUSH1 0x0 MSTORE PUSH1 0x20 PUSH1 0x0 KECCAK256 SWAP1 PUSH1 0x0 SWAP4 JUMPDEST PUSH1 0x1F NOT DUP5 AND DUP6 LT PUSH2 0xE0C JUMPI PUSH1 0x1 SWAP5 POP DUP4 PUSH1 0x1F NOT DUP2 AND LT PUSH2 0xDF3 JUMPI JUMPDEST POP POP POP DUP2 SHL ADD PUSH1 0x2 DUP4 ADD SSTORE PUSH2 0x9F6 JUMP JUMPDEST ADD MLOAD PUSH1 0x0 NOT PUSH1 0xF8 DUP5 PUSH1 0x3 SHL AND SHR NOT AND SWAP1 SSTORE DUP7 DUP1 DUP1 PUSH2 0xDE3 JUMP JUMPDEST DUP2 DUP2 ADD MLOAD DUP4 SSTORE PUSH1 0x20 SWAP5 DUP6 ADD SWAP5 PUSH1 0x1 SWAP1 SWAP4 ADD SWAP3 SWAP1 SWAP2 ADD SWAP1 PUSH2 0xDC8 JUMP JUMPDEST SWAP1 SWAP2 POP PUSH1 0x2 DUP6 ADD PUSH1 0x0 MSTORE PUSH1 0x20 PUSH1 0x0 KECCAK256 PUSH1 0x1F DUP5 ADD PUSH1 0x5 SHR DUP2 ADD PUSH1 0x20 DUP6 LT PUSH2 0xE73 JUMPI JUMPDEST SWAP1 DUP5 SWAP4 SWAP3 SWAP2 JUMPDEST PUSH1 0x1F DUP4 ADD PUSH1 0x5 SHR DUP3 ADD DUP2 LT PUSH2 0xE64 JUMPI POP POP PUSH2 0x9C7 JUMP JUMPDEST PUSH1 0x0 DUP2 SSTORE DUP6 SWAP5 POP PUSH1 0x1 ADD PUSH2 0xE4E JUMP JUMPDEST POP DUP1 PUSH2 0xE48 JUMP JUMPDEST PUSH1 0x64 SWAP1 PUSH32 0x4D6574616461746120686173682063616E6E6F7420626520656D707479000000 PUSH1 0x40 MLOAD SWAP2 PUSH3 0x461BCD PUSH1 0xE5 SHL DUP4 MSTORE PUSH1 0x20 PUSH1 0x4 DUP5 ADD MSTORE PUSH1 0x1D PUSH1 0x24 DUP5 ADD MSTORE DUP3 ADD MSTORE REVERT JUMPDEST PUSH1 0x64 SWAP1 PUSH21 0x5469746C652063616E6E6F7420626520656D707479 PUSH1 0x58 SHL PUSH1 0x40 MLOAD SWAP2 PUSH3 0x461BCD PUSH1 0xE5 SHL DUP4 MSTORE PUSH1 0x20 PUSH1 0x4 DUP5 ADD MSTORE PUSH1 0x15 PUSH1 0x24 DUP5 ADD MSTORE DUP3 ADD MSTORE REVERT JUMPDEST PUSH1 0x64 SWAP1 PUSH32 0x4475726174696F6E206D7573742062652067726561746572207468616E203000 PUSH1 0x40 MLOAD SWAP2 PUSH3 0x461BCD PUSH1 0xE5 SHL DUP4 MSTORE PUSH1 0x20 PUSH1 0x4 DUP5 ADD MSTORE PUSH1 0x1F PUSH1 0x24 DUP5 ADD MSTORE DUP3 ADD MSTORE REVERT JUMPDEST PUSH1 0x84 SWAP1 PUSH32 0x54617267657420616D6F756E74206D7573742062652067726561746572207468 PUSH1 0x40 MLOAD SWAP2 PUSH3 0x461BCD PUSH1 0xE5 SHL DUP4 MSTORE PUSH1 0x20 PUSH1 0x4 DUP5 ADD MSTORE PUSH1 0x24 DUP1 DUP5 ADD MSTORE DUP3 ADD MSTORE PUSH4 0x616E203 PUSH1 0xE4 SHL PUSH1 0x64 DUP3 ADD MSTORE REVERT JUMPDEST PUSH1 0x84 SWAP1 PUSH32 0x496E73756666696369656E742063616D706169676E206372656174696F6E2066 PUSH1 0x40 MLOAD SWAP2 PUSH3 0x461BCD PUSH1 0xE5 SHL DUP4 MSTORE PUSH1 0x20 PUSH1 0x4 DUP5 ADD MSTORE PUSH1 0x22 PUSH1 0x24 DUP5 ADD MSTORE DUP3 ADD MSTORE PUSH2 0x6565 PUSH1 0xF0 SHL PUSH1 0x64 DUP3 ADD MSTORE REVERT JUMPDEST CALLVALUE PUSH2 0x19E JUMPI PUSH1 0x0 CALLDATASIZE PUSH1 0x3 NOT ADD SLT PUSH2 0x19E JUMPI PUSH1 0x1 SLOAD PUSH1 0x40 MLOAD PUSH1 0x1 PUSH1 0x1 PUSH1 0xA0 SHL SUB SWAP1 SWAP2 AND DUP2 MSTORE PUSH1 0x20 SWAP1 RETURN JUMPDEST CALLVALUE PUSH2 0x19E JUMPI PUSH1 0x0 CALLDATASIZE PUSH1 0x3 NOT ADD SLT PUSH2 0x19E JUMPI PUSH2 0x101F PUSH2 0x212F JUMP JUMPDEST PUSH2 0x1027 PUSH2 0x21E5 JUMP JUMPDEST PUSH1 0x1 DUP1 SLOAD PUSH1 0xFF PUSH1 0xA0 SHL NOT AND PUSH1 0x1 PUSH1 0xA0 SHL OR SWAP1 SSTORE PUSH1 0x40 MLOAD CALLER DUP2 MSTORE PUSH32 0x62E78CEA01BEE320CD4E420270B5EA74000D11B0C9F74754EBDBFC544B05A258 SWAP1 PUSH1 0x20 SWAP1 LOG1 STOP JUMPDEST CALLVALUE PUSH2 0x19E JUMPI PUSH1 0x20 CALLDATASIZE PUSH1 0x3 NOT ADD SLT PUSH2 0x19E JUMPI PUSH1 0x4 CALLDATALOAD PUSH2 0x1084 PUSH2 0x212F JUMP JUMPDEST DUP1 ISZERO ISZERO DUP1 PUSH2 0x10B2 JUMPI JUMPDEST PUSH2 0x1096 SWAP1 PUSH2 0x2282 JUMP JUMPDEST PUSH1 0x0 SWAP1 DUP2 MSTORE PUSH1 0x4 PUSH1 0x20 MSTORE PUSH1 0x40 SWAP1 KECCAK256 PUSH1 0x8 ADD DUP1 SLOAD PUSH2 0xFF00 NOT AND SWAP1 SSTORE STOP JUMPDEST POP PUSH1 0x3 SLOAD DUP2 GT ISZERO PUSH2 0x108D JUMP JUMPDEST CALLVALUE PUSH2 0x19E JUMPI PUSH1 0x40 CALLDATASIZE PUSH1 0x3 NOT ADD SLT PUSH2 0x19E JUMPI PUSH2 0x10D7 PUSH2 0x1F66 JUMP JUMPDEST PUSH1 0x1 PUSH1 0x1 PUSH1 0xA0 SHL SUB AND PUSH1 0x0 SWAP1 DUP2 MSTORE PUSH1 0x8 PUSH1 0x20 MSTORE PUSH1 0x40 SWAP1 KECCAK256 DUP1 SLOAD PUSH1 0x24 CALLDATALOAD SWAP2 SWAP1 DUP3 LT ISZERO PUSH2 0x19E JUMPI PUSH1 0x20 SWAP2 PUSH2 0x1108 SWAP2 PUSH2 0x1F92 JUMP JUMPDEST SWAP1 SLOAD PUSH1 0x40 MLOAD SWAP2 PUSH1 0x3 SHL SHR DUP2 MSTORE RETURN JUMPDEST CALLVALUE PUSH2 0x19E JUMPI PUSH1 0x0 CALLDATASIZE PUSH1 0x3 NOT ADD SLT PUSH2 0x19E JUMPI PUSH2 0x112F PUSH2 0x212F JUMP JUMPDEST PUSH1 0x1 DUP1 SLOAD PUSH1 0x1 PUSH1 0x1 PUSH1 0xA0 SHL SUB NOT DUP2 AND SWAP1 SWAP2 SSTORE PUSH1 0x0 SWAP1 PUSH1 0x1 PUSH1 0x1 PUSH1 0xA0 SHL SUB AND PUSH32 0x8BE0079C531659141344CD1FD0A4F28419497F9722A3DAAFE3B4186F6B6457E0 DUP3 DUP1 LOG3 STOP JUMPDEST CALLVALUE PUSH2 0x19E JUMPI PUSH1 0x20 CALLDATASIZE PUSH1 0x3 NOT ADD SLT PUSH2 0x19E JUMPI PUSH1 0x4 CALLDATALOAD DUP1 ISZERO ISZERO DUP1 PUSH2 0x12AA JUMPI JUMPDEST PUSH2 0x1199 SWAP1 PUSH2 0x2282 JUMP JUMPDEST PUSH1 0x0 MSTORE PUSH1 0x4 PUSH1 0x20 MSTORE PUSH1 0xC0 PUSH1 0x40 PUSH1 0x0 KECCAK256 PUSH1 0x40 MLOAD PUSH2 0x11B4 DUP2 PUSH2 0x1E25 JUMP JUMPDEST DUP2 SLOAD DUP2 MSTORE PUSH1 0x1 DUP3 ADD SLOAD PUSH1 0x1 PUSH1 0x1 PUSH1 0xA0 SHL SUB AND PUSH1 0x20 DUP3 ADD MSTORE PUSH2 0x11D7 PUSH1 0x2 DUP4 ADD PUSH2 0x1E80 JUMP JUMPDEST PUSH1 0x40 DUP3 ADD MSTORE PUSH2 0x11E8 PUSH1 0x3 DUP4 ADD PUSH2 0x1E80 JUMP JUMPDEST PUSH1 0x60 DUP3 ADD MSTORE PUSH2 0x11F9 PUSH1 0x4 DUP4 ADD PUSH2 0x1E80 JUMP JUMPDEST PUSH1 0x80 DUP3 ADD MSTORE PUSH1 0x5 DUP3 ADD SLOAD SWAP1 PUSH1 0xA0 DUP2 ADD SWAP3 DUP3 DUP5 MSTORE PUSH2 0x160 PUSH1 0x6 DUP3 ADD SLOAD SWAP5 DUP7 DUP5 ADD SWAP4 DUP7 DUP6 MSTORE PUSH1 0x7 DUP5 ADD SLOAD SWAP1 DUP2 PUSH1 0xE0 DUP3 ADD MSTORE PUSH1 0xA PUSH1 0x8 DUP7 ADD SLOAD SWAP6 PUSH1 0xFF DUP8 AND ISZERO ISZERO PUSH2 0x100 DUP5 ADD MSTORE PUSH1 0xFF PUSH2 0x120 DUP5 ADD SWAP8 PUSH1 0x8 SHR AND ISZERO ISZERO DUP8 MSTORE PUSH1 0x9 DUP2 ADD SLOAD PUSH2 0x140 DUP5 ADD MSTORE ADD SLOAD SWAP4 DUP5 SWAP2 ADD MSTORE DUP1 TIMESTAMP LT ISZERO PUSH1 0x0 EQ PUSH2 0x1299 JUMPI POP PUSH1 0x0 SWAP3 JUMPDEST MLOAD ISZERO ISZERO SWAP4 MLOAD SWAP1 MLOAD GT ISZERO SWAP4 PUSH1 0x40 MLOAD SWAP6 DUP7 MSTORE PUSH1 0x20 DUP7 ADD MSTORE PUSH1 0x40 DUP6 ADD MSTORE PUSH1 0x60 DUP5 ADD MSTORE PUSH1 0x80 DUP4 ADD MSTORE PUSH1 0xA0 DUP3 ADD MSTORE RETURN JUMPDEST PUSH2 0x12A4 SWAP1 TIMESTAMP SWAP1 PUSH2 0x21D8 JUMP JUMPDEST SWAP3 PUSH2 0x126E JUMP JUMPDEST POP PUSH1 0x3 SLOAD DUP2 GT ISZERO PUSH2 0x1190 JUMP JUMPDEST CALLVALUE PUSH2 0x19E JUMPI PUSH1 0x0 CALLDATASIZE PUSH1 0x3 NOT ADD SLT PUSH2 0x19E JUMPI PUSH1 0x20 PUSH1 0x2 SLOAD PUSH1 0x40 MLOAD SWAP1 DUP2 MSTORE RETURN JUMPDEST CALLVALUE PUSH2 0x19E JUMPI PUSH1 0x20 CALLDATASIZE PUSH1 0x3 NOT ADD SLT PUSH2 0x19E JUMPI PUSH1 0x4 CALLDATALOAD PUSH2 0x12F0 PUSH2 0x212F JUMP JUMPDEST PUSH2 0x12F8 PUSH2 0x222C JUMP JUMPDEST PUSH1 0x2 SLOAD DUP1 DUP3 GT PUSH2 0x13B6 JUMPI SELFBALANCE DUP3 GT PUSH2 0x1371 JUMPI DUP2 PUSH2 0x1313 SWAP2 PUSH2 0x21D8 JUMP JUMPDEST PUSH1 0x2 SSTORE PUSH1 0x0 DUP1 DUP1 DUP1 DUP5 PUSH1 0x1 DUP1 PUSH1 0xA0 SHL SUB PUSH1 0x1 SLOAD AND DUP3 DUP3 ISZERO PUSH2 0x1368 JUMPI JUMPDEST CALL ISZERO PUSH2 0x3AB JUMPI PUSH1 0x40 MLOAD SWAP1 DUP2 MSTORE PUSH32 0xC0819C13BE868895EB93E40EACEB96DE976442FA1D404E5C55F14BB65A8C489A PUSH1 0x20 CALLER SWAP3 LOG2 PUSH1 0x1 PUSH1 0x0 SSTORE STOP JUMPDEST POP PUSH2 0x8FC PUSH2 0x132F JUMP JUMPDEST PUSH1 0x40 MLOAD PUSH3 0x461BCD PUSH1 0xE5 SHL DUP2 MSTORE PUSH1 0x20 PUSH1 0x4 DUP3 ADD MSTORE PUSH1 0x1D PUSH1 0x24 DUP3 ADD MSTORE PUSH32 0x496E73756666696369656E7420636F6E74726163742062616C616E6365000000 PUSH1 0x44 DUP3 ADD MSTORE PUSH1 0x64 SWAP1 REVERT JUMPDEST PUSH1 0x40 MLOAD PUSH3 0x461BCD PUSH1 0xE5 SHL DUP2 MSTORE PUSH1 0x20 PUSH1 0x4 DUP3 ADD MSTORE PUSH1 0x18 PUSH1 0x24 DUP3 ADD MSTORE PUSH32 0x496E73756666696369656E74206665652062616C616E63650000000000000000 PUSH1 0x44 DUP3 ADD MSTORE PUSH1 0x64 SWAP1 REVERT JUMPDEST CALLVALUE PUSH2 0x19E JUMPI PUSH1 0x0 CALLDATASIZE PUSH1 0x3 NOT ADD SLT PUSH2 0x19E JUMPI PUSH1 0x20 PUSH1 0xFF PUSH1 0x1 SLOAD PUSH1 0xA0 SHR AND PUSH1 0x40 MLOAD SWAP1 ISZERO ISZERO DUP2 MSTORE RETURN JUMPDEST CALLVALUE PUSH2 0x19E JUMPI PUSH1 0x20 CALLDATASIZE PUSH1 0x3 NOT ADD SLT PUSH2 0x19E JUMPI PUSH1 0x4 CALLDATALOAD PUSH2 0x143D PUSH2 0x2391 JUMP JUMPDEST POP DUP1 ISZERO ISZERO DUP1 PUSH2 0x151C JUMPI JUMPDEST PUSH2 0x1450 SWAP1 PUSH2 0x2282 JUMP JUMPDEST PUSH1 0x0 MSTORE PUSH1 0x4 PUSH1 0x20 MSTORE PUSH2 0x2D4 PUSH1 0x40 PUSH1 0x0 KECCAK256 PUSH1 0xA PUSH1 0x40 MLOAD SWAP2 PUSH2 0x146F DUP4 PUSH2 0x1E25 JUMP JUMPDEST DUP1 SLOAD DUP4 MSTORE PUSH1 0x1 DUP2 ADD SLOAD PUSH1 0x1 PUSH1 0x1 PUSH1 0xA0 SHL SUB AND PUSH1 0x20 DUP5 ADD MSTORE PUSH2 0x1492 PUSH1 0x2 DUP3 ADD PUSH2 0x1E80 JUMP JUMPDEST PUSH1 0x40 DUP5 ADD MSTORE PUSH2 0x14A3 PUSH1 0x3 DUP3 ADD PUSH2 0x1E80 JUMP JUMPDEST PUSH1 0x60 DUP5 ADD MSTORE PUSH2 0x14B4 PUSH1 0x4 DUP3 ADD PUSH2 0x1E80 JUMP JUMPDEST PUSH1 0x80 DUP5 ADD MSTORE PUSH1 0x5 DUP2 ADD SLOAD PUSH1 0xA0 DUP5 ADD MSTORE PUSH1 0x6 DUP2 ADD SLOAD PUSH1 0xC0 DUP5 ADD MSTORE PUSH1 0x7 DUP2 ADD SLOAD PUSH1 0xE0 DUP5 ADD MSTORE PUSH1 0xFF PUSH1 0x8 DUP3 ADD SLOAD DUP2 DUP2 AND ISZERO ISZERO PUSH2 0x100 DUP7 ADD MSTORE PUSH1 0x8 SHR AND ISZERO ISZERO PUSH2 0x120 DUP5 ADD MSTORE PUSH1 0x9 DUP2 ADD SLOAD PUSH2 0x140 DUP5 ADD MSTORE ADD SLOAD PUSH2 0x160 DUP3 ADD MSTORE PUSH1 0x40 MLOAD SWAP2 DUP3 SWAP2 PUSH1 0x20 DUP4 MSTORE PUSH1 0x20 DUP4 ADD SWAP1 PUSH2 0x1FF2 JUMP JUMPDEST POP PUSH1 0x3 SLOAD DUP2 GT ISZERO PUSH2 0x1447 JUMP JUMPDEST CALLVALUE PUSH2 0x19E JUMPI PUSH2 0x1536 CALLDATASIZE PUSH2 0x1FC0 JUMP JUMPDEST SWAP1 PUSH1 0x0 MSTORE PUSH1 0x6 PUSH1 0x20 MSTORE PUSH1 0x40 PUSH1 0x0 KECCAK256 DUP1 SLOAD DUP3 LT ISZERO PUSH2 0x19E JUMPI PUSH1 0x60 SWAP2 PUSH2 0x1559 SWAP2 PUSH2 0x1FD6 JUMP JUMPDEST POP PUSH1 0x1 DUP1 PUSH1 0xA0 SHL SUB DUP2 SLOAD AND SWAP1 PUSH1 0x2 PUSH1 0x1 DUP3 ADD SLOAD SWAP2 ADD SLOAD SWAP1 PUSH1 0x40 MLOAD SWAP3 DUP4 MSTORE PUSH1 0x20 DUP4 ADD MSTORE PUSH1 0x40 DUP3 ADD MSTORE RETURN JUMPDEST CALLVALUE PUSH2 0x19E JUMPI PUSH1 0x0 CALLDATASIZE PUSH1 0x3 NOT ADD SLT PUSH2 0x19E JUMPI PUSH2 0x159B PUSH2 0x212F JUMP JUMPDEST PUSH1 0x1 SLOAD PUSH1 0xFF DUP2 PUSH1 0xA0 SHR AND ISZERO PUSH2 0x15E2 JUMPI PUSH1 0xFF PUSH1 0xA0 SHL NOT AND PUSH1 0x1 SSTORE PUSH1 0x40 MLOAD CALLER DUP2 MSTORE PUSH32 0x5DB9EE0A495BF2E6FF9C91A7834C1BA4FDD244A5E8AA4E537BD38AEAE4B073AA SWAP1 PUSH1 0x20 SWAP1 LOG1 STOP JUMPDEST PUSH1 0x40 MLOAD PUSH3 0x461BCD PUSH1 0xE5 SHL DUP2 MSTORE PUSH1 0x20 PUSH1 0x4 DUP3 ADD MSTORE PUSH1 0x14 PUSH1 0x24 DUP3 ADD MSTORE PUSH20 0x14185D5CD8589B194E881B9BDD081C185D5CD959 PUSH1 0x62 SHL PUSH1 0x44 DUP3 ADD MSTORE PUSH1 0x64 SWAP1 REVERT JUMPDEST CALLVALUE PUSH2 0x19E JUMPI PUSH1 0x20 CALLDATASIZE PUSH1 0x3 NOT ADD SLT PUSH2 0x19E JUMPI PUSH1 0x4 CALLDATALOAD PUSH2 0x163A PUSH2 0x212F JUMP JUMPDEST DUP1 ISZERO ISZERO DUP1 PUSH2 0x16BD JUMPI JUMPDEST PUSH2 0x164C SWAP1 PUSH2 0x2282 JUMP JUMPDEST DUP1 PUSH1 0x0 MSTORE PUSH1 0x4 PUSH1 0x20 MSTORE PUSH1 0x7 PUSH1 0x40 PUSH1 0x0 KECCAK256 ADD SLOAD TIMESTAMP LT ISZERO PUSH2 0x1685 JUMPI PUSH1 0x0 SWAP1 DUP2 MSTORE PUSH1 0x4 PUSH1 0x20 MSTORE PUSH1 0x40 SWAP1 KECCAK256 PUSH1 0x8 ADD DUP1 SLOAD PUSH2 0xFF00 NOT AND PUSH2 0x100 OR SWAP1 SSTORE STOP JUMPDEST PUSH1 0x40 MLOAD PUSH3 0x461BCD PUSH1 0xE5 SHL DUP2 MSTORE PUSH1 0x20 PUSH1 0x4 DUP3 ADD MSTORE PUSH1 0x10 PUSH1 0x24 DUP3 ADD MSTORE PUSH16 0x10D85B5C185A59DB88195E1C1A5C9959 PUSH1 0x82 SHL PUSH1 0x44 DUP3 ADD MSTORE PUSH1 0x64 SWAP1 REVERT JUMPDEST POP PUSH1 0x3 SLOAD DUP2 GT ISZERO PUSH2 0x1643 JUMP JUMPDEST CALLVALUE PUSH2 0x19E JUMPI PUSH1 0x40 CALLDATASIZE PUSH1 0x3 NOT ADD SLT PUSH2 0x19E JUMPI PUSH2 0x16E2 PUSH2 0x1F66 JUMP JUMPDEST PUSH1 0x1 PUSH1 0x1 PUSH1 0xA0 SHL SUB AND PUSH1 0x0 SWAP1 DUP2 MSTORE PUSH1 0x7 PUSH1 0x20 MSTORE PUSH1 0x40 SWAP1 KECCAK256 DUP1 SLOAD PUSH1 0x24 CALLDATALOAD SWAP2 SWAP1 DUP3 LT ISZERO PUSH2 0x19E JUMPI PUSH1 0x20 SWAP2 PUSH2 0x1108 SWAP2 PUSH2 0x1F92 JUMP JUMPDEST CALLVALUE PUSH2 0x19E JUMPI PUSH1 0x20 CALLDATASIZE PUSH1 0x3 NOT ADD SLT PUSH2 0x19E JUMPI PUSH1 0x4 DUP1 CALLDATALOAD PUSH1 0x0 SWAP1 DUP2 MSTORE PUSH1 0x20 SWAP2 SWAP1 SWAP2 MSTORE PUSH1 0x40 SWAP1 KECCAK256 DUP1 SLOAD PUSH1 0x1 DUP3 ADD SLOAD PUSH1 0x1 PUSH1 0x1 PUSH1 0xA0 SHL SUB AND SWAP2 PUSH2 0x1754 PUSH1 0x2 DUP3 ADD PUSH2 0x1E80 JUMP JUMPDEST PUSH2 0x1760 PUSH1 0x3 DUP4 ADD PUSH2 0x1E80 JUMP JUMPDEST SWAP2 PUSH2 0x176D PUSH1 0x4 DUP3 ADD PUSH2 0x1E80 JUMP JUMPDEST SWAP3 PUSH1 0x5 DUP3 ADD SLOAD SWAP4 PUSH1 0x6 DUP4 ADD SLOAD PUSH1 0x7 DUP5 ADD SLOAD SWAP2 PUSH1 0x8 DUP6 ADD SLOAD SWAP4 PUSH1 0x9 DUP7 ADD SLOAD SWAP6 PUSH1 0xA ADD SLOAD SWAP7 PUSH1 0x40 MLOAD SWAP11 DUP12 SWAP11 DUP12 MSTORE PUSH1 0x20 DUP12 ADD MSTORE PUSH2 0x180 DUP1 PUSH1 0x40 DUP13 ADD MSTORE DUP11 ADD PUSH2 0x17B1 SWAP2 PUSH2 0x1F26 JUMP JUMPDEST DUP10 DUP2 SUB PUSH1 0x60 DUP12 ADD MSTORE PUSH2 0x17C2 SWAP2 PUSH2 0x1F26 JUMP JUMPDEST DUP9 DUP2 SUB PUSH1 0x80 DUP11 ADD MSTORE PUSH2 0x17D3 SWAP2 PUSH2 0x1F26 JUMP JUMPDEST SWAP6 PUSH1 0xA0 DUP9 ADD MSTORE PUSH1 0xC0 DUP8 ADD MSTORE PUSH1 0xE0 DUP7 ADD MSTORE PUSH1 0xFF DUP2 AND ISZERO ISZERO PUSH2 0x100 DUP7 ADD MSTORE PUSH1 0x8 SHR PUSH1 0xFF AND ISZERO ISZERO PUSH2 0x120 DUP6 ADD MSTORE PUSH2 0x140 DUP5 ADD MSTORE PUSH2 0x160 DUP4 ADD MSTORE SUB SWAP1 RETURN JUMPDEST CALLVALUE PUSH2 0x19E JUMPI PUSH1 0x20 DUP1 PUSH1 0x3 NOT CALLDATASIZE ADD SLT PUSH2 0x19E JUMPI PUSH1 0x4 CALLDATALOAD DUP1 ISZERO ISZERO DUP1 PUSH2 0x19F2 JUMPI JUMPDEST PUSH2 0x1834 SWAP1 PUSH2 0x2282 JUMP JUMPDEST DUP1 PUSH1 0x0 MSTORE PUSH1 0x4 DUP3 MSTORE PUSH2 0x1853 PUSH1 0xFF PUSH1 0x8 PUSH1 0x40 PUSH1 0x0 KECCAK256 ADD SLOAD PUSH1 0x8 SHR AND PUSH2 0x22C4 JUMP JUMPDEST PUSH1 0x0 DUP2 DUP2 MSTORE PUSH1 0x4 DUP4 MSTORE PUSH1 0x40 SWAP1 KECCAK256 PUSH1 0x1 ADD SLOAD PUSH1 0x1 PUSH1 0x1 PUSH1 0xA0 SHL SUB SWAP1 DUP2 AND CALLER SUB PUSH2 0x19B6 JUMPI DUP2 PUSH1 0x0 MSTORE PUSH1 0x4 DUP4 MSTORE PUSH2 0x1891 PUSH1 0x7 PUSH1 0x40 PUSH1 0x0 KECCAK256 ADD SLOAD TIMESTAMP LT ISZERO PUSH2 0x2309 JUMP JUMPDEST PUSH2 0x1899 PUSH2 0x222C JUMP JUMPDEST DUP2 PUSH1 0x0 MSTORE PUSH1 0x4 DUP4 MSTORE PUSH1 0x40 PUSH1 0x0 KECCAK256 PUSH1 0x8 DUP2 ADD SWAP2 DUP3 SLOAD SWAP2 PUSH1 0xFF DUP4 AND PUSH2 0x1971 JUMPI PUSH1 0x6 DUP2 ADD SWAP4 DUP5 SLOAD SWAP4 PUSH1 0x5 DUP4 ADD SLOAD DUP6 LT PUSH2 0x192C JUMPI PUSH1 0xFF NOT AND PUSH1 0x1 SWAP1 DUP2 OR SWAP1 SWAP2 SSTORE ADD SLOAD PUSH1 0x0 SWAP3 DUP4 SWAP3 DUP4 SWAP3 DUP4 SWAP3 SWAP2 AND DUP3 DUP3 ISZERO PUSH2 0x1923 JUMPI JUMPDEST CALL ISZERO PUSH2 0x3AB JUMPI SLOAD PUSH1 0x40 MLOAD SWAP1 DUP2 MSTORE CALLER SWAP3 PUSH32 0x76F7A439D190ED0F7882EACFF83199CDA95F20B1CF940A11192A967E6E7CDCF SWAP2 LOG3 PUSH1 0x1 PUSH1 0x0 SSTORE STOP JUMPDEST POP PUSH2 0x8FC PUSH2 0x18EA JUMP JUMPDEST PUSH1 0x40 MLOAD PUSH3 0x461BCD PUSH1 0xE5 SHL DUP2 MSTORE PUSH1 0x4 DUP2 ADD DUP10 SWAP1 MSTORE PUSH1 0x1B PUSH1 0x24 DUP3 ADD MSTORE PUSH32 0x43616D706169676E20746172676574206E6F7420726561636865640000000000 PUSH1 0x44 DUP3 ADD MSTORE PUSH1 0x64 SWAP1 REVERT JUMPDEST PUSH1 0x40 MLOAD PUSH3 0x461BCD PUSH1 0xE5 SHL DUP2 MSTORE PUSH1 0x4 DUP2 ADD DUP8 SWAP1 MSTORE PUSH1 0x17 PUSH1 0x24 DUP3 ADD MSTORE PUSH32 0x46756E647320616C72656164792077697468647261776E000000000000000000 PUSH1 0x44 DUP3 ADD MSTORE PUSH1 0x64 SWAP1 REVERT JUMPDEST PUSH1 0x40 MLOAD PUSH3 0x461BCD PUSH1 0xE5 SHL DUP2 MSTORE PUSH1 0x4 DUP2 ADD DUP5 SWAP1 MSTORE PUSH1 0x14 PUSH1 0x24 DUP3 ADD MSTORE PUSH20 0x2737BA1031B0B6B830B4B3B71031B932B0BA37B9 PUSH1 0x61 SHL PUSH1 0x44 DUP3 ADD MSTORE PUSH1 0x64 SWAP1 REVERT JUMPDEST POP PUSH1 0x3 SLOAD DUP2 GT ISZERO PUSH2 0x182B JUMP JUMPDEST PUSH1 0x20 DUP1 PUSH1 0x3 NOT CALLDATASIZE ADD SLT PUSH2 0x19E JUMPI PUSH1 0x4 CALLDATALOAD SWAP1 DUP2 ISZERO ISZERO DUP1 PUSH2 0x1CEA JUMPI JUMPDEST PUSH2 0x1A21 SWAP1 PUSH2 0x2282 JUMP JUMPDEST DUP2 PUSH1 0x0 MSTORE PUSH1 0x4 DUP2 MSTORE PUSH2 0x1A40 PUSH1 0xFF PUSH1 0x8 PUSH1 0x40 PUSH1 0x0 KECCAK256 ADD SLOAD PUSH1 0x8 SHR AND PUSH2 0x22C4 JUMP JUMPDEST DUP2 PUSH1 0x0 MSTORE PUSH1 0x4 DUP2 MSTORE PUSH1 0x7 PUSH1 0x40 PUSH1 0x0 KECCAK256 ADD SLOAD TIMESTAMP LT ISZERO PUSH2 0x1CB1 JUMPI PUSH2 0x1A60 PUSH2 0x21E5 JUMP JUMPDEST PUSH2 0x1A68 PUSH2 0x222C JUMP JUMPDEST CALLVALUE ISZERO PUSH2 0x1C61 JUMPI PUSH1 0x0 DUP3 DUP2 MSTORE PUSH1 0x4 DUP3 MSTORE PUSH1 0x40 SWAP1 KECCAK256 PUSH1 0x1 ADD SLOAD PUSH1 0x1 PUSH1 0x1 PUSH1 0xA0 SHL SUB SWAP2 SWAP1 DUP3 AND CALLER EQ PUSH2 0x1C13 JUMPI DUP3 PUSH1 0x0 MSTORE PUSH1 0x4 DUP2 MSTORE PUSH1 0x40 PUSH1 0x0 KECCAK256 SWAP2 PUSH1 0x5 DUP3 MSTORE PUSH1 0x40 PUSH1 0x0 KECCAK256 CALLER PUSH1 0x0 MSTORE DUP3 MSTORE PUSH1 0x40 PUSH1 0x0 KECCAK256 SLOAD ISZERO PUSH2 0x1BE8 JUMPI JUMPDEST DUP4 PUSH1 0x0 MSTORE PUSH1 0x5 DUP3 MSTORE PUSH1 0x40 PUSH1 0x0 KECCAK256 CALLER PUSH1 0x0 MSTORE DUP3 MSTORE PUSH1 0x40 PUSH1 0x0 KECCAK256 PUSH2 0x1ADD CALLVALUE DUP3 SLOAD PUSH2 0x2196 JUMP JUMPDEST SWAP1 SSTORE PUSH1 0x6 DUP4 ADD PUSH2 0x1AEE CALLVALUE DUP3 SLOAD PUSH2 0x2196 JUMP JUMPDEST DUP2 SSTORE DUP5 PUSH1 0x0 MSTORE PUSH1 0x6 DUP4 MSTORE PUSH1 0x40 PUSH1 0x0 KECCAK256 PUSH1 0x40 MLOAD PUSH2 0x1B09 DUP2 PUSH2 0x1E42 JUMP JUMPDEST CALLER DUP2 MSTORE DUP5 DUP2 ADD SWAP2 CALLVALUE DUP4 MSTORE PUSH1 0x40 DUP3 ADD SWAP1 TIMESTAMP DUP3 MSTORE DUP1 SLOAD PUSH1 0x1 PUSH1 0x40 SHL DUP2 LT ISZERO PUSH2 0xCC4 JUMPI PUSH2 0x1B38 SWAP2 PUSH1 0x1 DUP3 ADD DUP2 SSTORE PUSH2 0x1FD6 JUMP JUMPDEST SWAP4 SWAP1 SWAP4 PUSH2 0x1BD2 JUMPI PUSH1 0x5 SWAP6 PUSH1 0x2 SWAP4 MLOAD AND PUSH1 0x1 PUSH1 0x1 PUSH1 0x60 SHL SUB PUSH1 0xA0 SHL DUP6 SLOAD AND OR DUP5 SSTORE MLOAD PUSH1 0x1 DUP5 ADD SSTORE MLOAD SWAP2 ADD SSTORE PUSH1 0x40 MLOAD CALLVALUE DUP2 MSTORE DUP6 PUSH32 0xA4A91237423E0A1766A761C7CB029311D8B95D6B1B81DB1B949A70C98B4E08E DUP6 CALLER SWAP4 LOG3 SLOAD SWAP3 ADD SLOAD DUP3 LT ISZERO PUSH2 0x1BA1 JUMPI JUMPDEST PUSH1 0x1 PUSH1 0x0 SSTORE STOP JUMPDEST PUSH32 0x318DAF69D77E946364E804495B2184222324B99FDDEB42AB5FD25A919F596E8C SWAP2 PUSH1 0x40 MLOAD SWAP1 DUP2 MSTORE LOG2 DUP1 DUP1 DUP1 PUSH2 0x1B9A JUMP JUMPDEST PUSH4 0x4E487B71 PUSH1 0xE0 SHL PUSH1 0x0 MSTORE PUSH1 0x0 PUSH1 0x4 MSTORE PUSH1 0x24 PUSH1 0x0 REVERT JUMPDEST PUSH1 0xA DUP4 ADD PUSH2 0x1BF6 DUP2 SLOAD PUSH2 0x2187 JUMP JUMPDEST SWAP1 SSTORE CALLER PUSH1 0x0 MSTORE PUSH1 0x8 DUP3 MSTORE PUSH2 0x1C0E DUP5 PUSH1 0x40 PUSH1 0x0 KECCAK256 PUSH2 0x21A3 JUMP JUMPDEST PUSH2 0x1ABA JUMP JUMPDEST PUSH1 0x84 SWAP1 PUSH1 0x40 MLOAD SWAP1 PUSH3 0x461BCD PUSH1 0xE5 SHL DUP3 MSTORE PUSH1 0x4 DUP3 ADD MSTORE PUSH1 0x21 PUSH1 0x24 DUP3 ADD MSTORE PUSH32 0x43616E6E6F7420636F6E7472696275746520746F206F776E2063616D70616967 PUSH1 0x44 DUP3 ADD MSTORE PUSH1 0x37 PUSH1 0xF9 SHL PUSH1 0x64 DUP3 ADD MSTORE REVERT JUMPDEST PUSH1 0x84 SWAP1 PUSH1 0x40 MLOAD SWAP1 PUSH3 0x461BCD PUSH1 0xE5 SHL DUP3 MSTORE PUSH1 0x4 DUP3 ADD MSTORE PUSH1 0x23 PUSH1 0x24 DUP3 ADD MSTORE PUSH32 0x436F6E747269627574696F6E206D757374206265206772656174657220746861 PUSH1 0x44 DUP3 ADD MSTORE PUSH3 0x6E203 PUSH1 0xEC SHL PUSH1 0x64 DUP3 ADD MSTORE REVERT JUMPDEST PUSH1 0x64 SWAP1 PUSH1 0x40 MLOAD SWAP1 PUSH3 0x461BCD PUSH1 0xE5 SHL DUP3 MSTORE PUSH1 0x4 DUP3 ADD MSTORE PUSH1 0x12 PUSH1 0x24 DUP3 ADD MSTORE PUSH18 0x10D85B5C185A59DB881A185CC8195B991959 PUSH1 0x72 SHL PUSH1 0x44 DUP3 ADD MSTORE REVERT JUMPDEST POP PUSH1 0x3 SLOAD DUP3 GT ISZERO PUSH2 0x1A18 JUMP JUMPDEST CALLVALUE PUSH2 0x19E JUMPI PUSH1 0x20 CALLDATASIZE PUSH1 0x3 NOT ADD SLT PUSH2 0x19E JUMPI PUSH1 0x4 CALLDATALOAD DUP1 ISZERO ISZERO DUP1 PUSH2 0x1DDF JUMPI JUMPDEST PUSH2 0x1D1C SWAP1 PUSH2 0x2282 JUMP JUMPDEST PUSH1 0x0 MSTORE PUSH1 0x4 PUSH1 0x20 MSTORE PUSH1 0x20 PUSH1 0x40 PUSH1 0x0 KECCAK256 PUSH1 0x40 MLOAD PUSH2 0x1D37 DUP2 PUSH2 0x1E25 JUMP JUMPDEST DUP2 SLOAD DUP2 MSTORE PUSH1 0x1 DUP3 ADD SLOAD PUSH1 0x1 PUSH1 0x1 PUSH1 0xA0 SHL SUB AND DUP4 DUP3 ADD MSTORE PUSH2 0x1D59 PUSH1 0x2 DUP4 ADD PUSH2 0x1E80 JUMP JUMPDEST PUSH1 0x40 DUP3 ADD MSTORE PUSH2 0x1D6A PUSH1 0x3 DUP4 ADD PUSH2 0x1E80 JUMP JUMPDEST PUSH1 0x60 DUP3 ADD MSTORE PUSH2 0x1D7B PUSH1 0x4 DUP4 ADD PUSH2 0x1E80 JUMP JUMPDEST PUSH1 0x80 DUP3 ADD MSTORE PUSH1 0x5 DUP3 ADD SLOAD SWAP1 DUP2 PUSH1 0xA0 DUP3 ADD MSTORE PUSH2 0x160 PUSH1 0xA PUSH1 0x6 DUP6 ADD SLOAD SWAP5 DUP6 PUSH1 0xC0 DUP6 ADD MSTORE PUSH1 0x7 DUP2 ADD SLOAD PUSH1 0xE0 DUP6 ADD MSTORE PUSH1 0xFF PUSH1 0x8 DUP3 ADD SLOAD DUP2 DUP2 AND ISZERO ISZERO PUSH2 0x100 DUP8 ADD MSTORE PUSH1 0x8 SHR AND ISZERO ISZERO PUSH2 0x120 DUP6 ADD MSTORE PUSH1 0x9 DUP2 ADD SLOAD PUSH2 0x140 DUP6 ADD MSTORE ADD SLOAD SWAP2 ADD MSTORE PUSH1 0x40 MLOAD SWAP2 LT ISZERO DUP2 MSTORE RETURN JUMPDEST POP PUSH1 0x3 SLOAD DUP2 GT ISZERO PUSH2 0x1D13 JUMP JUMPDEST SWAP1 PUSH1 0x1 DUP3 DUP2 SHR SWAP3 AND DUP1 ISZERO PUSH2 0x1E1B JUMPI JUMPDEST PUSH1 0x20 DUP4 LT EQ PUSH2 0x1E05 JUMPI JUMP JUMPDEST PUSH4 0x4E487B71 PUSH1 0xE0 SHL PUSH1 0x0 MSTORE PUSH1 0x22 PUSH1 0x4 MSTORE PUSH1 0x24 PUSH1 0x0 REVERT JUMPDEST SWAP2 PUSH1 0x7F AND SWAP2 PUSH2 0x1DFA JUMP JUMPDEST PUSH2 0x180 DUP2 ADD SWAP1 DUP2 LT PUSH8 0xFFFFFFFFFFFFFFFF DUP3 GT OR PUSH2 0xCC4 JUMPI PUSH1 0x40 MSTORE JUMP JUMPDEST PUSH1 0x60 DUP2 ADD SWAP1 DUP2 LT PUSH8 0xFFFFFFFFFFFFFFFF DUP3 GT OR PUSH2 0xCC4 JUMPI PUSH1 0x40 MSTORE JUMP JUMPDEST SWAP1 PUSH1 0x1F DUP1 NOT SWAP2 ADD AND DUP2 ADD SWAP1 DUP2 LT PUSH8 0xFFFFFFFFFFFFFFFF DUP3 GT OR PUSH2 0xCC4 JUMPI PUSH1 0x40 MSTORE JUMP JUMPDEST SWAP1 PUSH1 0x40 MLOAD SWAP2 DUP3 PUSH1 0x0 DUP3 SLOAD SWAP3 PUSH2 0x1E94 DUP5 PUSH2 0x1DEB JUMP JUMPDEST SWAP1 DUP2 DUP5 MSTORE PUSH1 0x1 SWAP5 DUP6 DUP2 AND SWAP1 DUP2 PUSH1 0x0 EQ PUSH2 0x1F03 JUMPI POP PUSH1 0x1 EQ PUSH2 0x1EC0 JUMPI JUMPDEST POP POP PUSH2 0x1EBE SWAP3 POP SUB DUP4 PUSH2 0x1E5E JUMP JUMPDEST JUMP JUMPDEST SWAP1 SWAP4 SWAP2 POP PUSH1 0x0 MSTORE PUSH1 0x20 SWAP1 DUP2 PUSH1 0x0 KECCAK256 SWAP4 PUSH1 0x0 SWAP2 JUMPDEST DUP2 DUP4 LT PUSH2 0x1EEB JUMPI POP POP PUSH2 0x1EBE SWAP4 POP DUP3 ADD ADD CODESIZE DUP1 PUSH2 0x1EB0 JUMP JUMPDEST DUP6 SLOAD DUP9 DUP5 ADD DUP6 ADD MSTORE SWAP5 DUP6 ADD SWAP5 DUP8 SWAP5 POP SWAP2 DUP4 ADD SWAP2 PUSH2 0x1ED3 JUMP JUMPDEST SWAP2 POP POP PUSH2 0x1EBE SWAP5 POP PUSH1 0x20 SWAP3 POP PUSH1 0xFF NOT AND DUP3 DUP5 ADD MSTORE ISZERO ISZERO PUSH1 0x5 SHL DUP3 ADD ADD CODESIZE DUP1 PUSH2 0x1EB0 JUMP JUMPDEST SWAP2 SWAP1 DUP3 MLOAD SWAP3 DUP4 DUP3 MSTORE PUSH1 0x0 JUMPDEST DUP5 DUP2 LT PUSH2 0x1F52 JUMPI POP POP DUP3 PUSH1 0x0 PUSH1 0x20 DUP1 SWAP5 SWAP6 DUP5 ADD ADD MSTORE PUSH1 0x1F DUP1 NOT SWAP2 ADD AND ADD ADD SWAP1 JUMP JUMPDEST PUSH1 0x20 DUP2 DUP4 ADD DUP2 ADD MLOAD DUP5 DUP4 ADD DUP3 ADD MSTORE ADD PUSH2 0x1F31 JUMP JUMPDEST PUSH1 0x4 CALLDATALOAD SWAP1 PUSH1 0x1 PUSH1 0x1 PUSH1 0xA0 SHL SUB DUP3 AND DUP3 SUB PUSH2 0x19E JUMPI JUMP JUMPDEST PUSH1 0x24 CALLDATALOAD SWAP1 PUSH1 0x1 PUSH1 0x1 PUSH1 0xA0 SHL SUB DUP3 AND DUP3 SUB PUSH2 0x19E JUMPI JUMP JUMPDEST DUP1 SLOAD DUP3 LT ISZERO PUSH2 0x1FAA JUMPI PUSH1 0x0 MSTORE PUSH1 0x20 PUSH1 0x0 KECCAK256 ADD SWAP1 PUSH1 0x0 SWAP1 JUMP JUMPDEST PUSH4 0x4E487B71 PUSH1 0xE0 SHL PUSH1 0x0 MSTORE PUSH1 0x32 PUSH1 0x4 MSTORE PUSH1 0x24 PUSH1 0x0 REVERT JUMPDEST PUSH1 0x40 SWAP1 PUSH1 0x3 NOT ADD SLT PUSH2 0x19E JUMPI PUSH1 0x4 CALLDATALOAD SWAP1 PUSH1 0x24 CALLDATALOAD SWAP1 JUMP JUMPDEST DUP1 SLOAD DUP3 LT ISZERO PUSH2 0x1FAA JUMPI PUSH1 0x0 MSTORE PUSH1 0x3 PUSH1 0x20 PUSH1 0x0 KECCAK256 SWAP2 MUL ADD SWAP1 PUSH1 0x0 SWAP1 JUMP JUMPDEST SWAP1 DUP2 MLOAD DUP2 MSTORE PUSH1 0x1 DUP1 PUSH1 0xA0 SHL SUB PUSH1 0x20 DUP4 ADD MLOAD AND PUSH1 0x20 DUP3 ADD MSTORE PUSH2 0x204C PUSH2 0x203A PUSH2 0x2028 PUSH1 0x40 DUP6 ADD MLOAD PUSH2 0x180 DUP1 PUSH1 0x40 DUP8 ADD MSTORE DUP6 ADD SWAP1 PUSH2 0x1F26 JUMP JUMPDEST PUSH1 0x60 DUP6 ADD MLOAD DUP5 DUP3 SUB PUSH1 0x60 DUP7 ADD MSTORE PUSH2 0x1F26 JUMP JUMPDEST PUSH1 0x80 DUP5 ADD MLOAD DUP4 DUP3 SUB PUSH1 0x80 DUP6 ADD MSTORE PUSH2 0x1F26 JUMP JUMPDEST SWAP2 PUSH1 0xA0 DUP2 ADD MLOAD PUSH1 0xA0 DUP4 ADD MSTORE PUSH1 0xC0 DUP2 ADD MLOAD PUSH1 0xC0 DUP4 ADD MSTORE PUSH1 0xE0 DUP2 ADD MLOAD PUSH1 0xE0 DUP4 ADD MSTORE PUSH2 0x100 DUP1 DUP3 ADD MLOAD ISZERO ISZERO SWAP1 DUP4 ADD MSTORE PUSH2 0x120 DUP1 DUP3 ADD MLOAD ISZERO ISZERO SWAP1 DUP4 ADD MSTORE PUSH2 0x140 DUP1 DUP3 ADD MLOAD SWAP1 DUP4 ADD MSTORE PUSH2 0x160 DUP1 SWAP2 ADD MLOAD SWAP2 ADD MSTORE SWAP1 JUMP JUMPDEST DUP2 PUSH1 0x1F DUP3 ADD SLT ISZERO PUSH2 0x19E JUMPI DUP1 CALLDATALOAD SWAP1 PUSH8 0xFFFFFFFFFFFFFFFF DUP3 GT PUSH2 0xCC4 JUMPI PUSH1 0x40 MLOAD SWAP3 PUSH2 0x20D2 PUSH1 0x1F DUP5 ADD PUSH1 0x1F NOT AND PUSH1 0x20 ADD DUP6 PUSH2 0x1E5E JUMP JUMPDEST DUP3 DUP5 MSTORE PUSH1 0x20 DUP4 DUP4 ADD ADD GT PUSH2 0x19E JUMPI DUP2 PUSH1 0x0 SWAP3 PUSH1 0x20 DUP1 SWAP4 ADD DUP4 DUP7 ADD CALLDATACOPY DUP4 ADD ADD MSTORE SWAP1 JUMP JUMPDEST PUSH1 0x20 SWAP1 DUP2 PUSH1 0x40 DUP2 DUP4 ADD SWAP3 DUP3 DUP2 MSTORE DUP6 MLOAD DUP1 SWAP5 MSTORE ADD SWAP4 ADD SWAP2 PUSH1 0x0 JUMPDEST DUP3 DUP2 LT PUSH2 0x211B JUMPI POP POP POP POP SWAP1 JUMP JUMPDEST DUP4 MLOAD DUP6 MSTORE SWAP4 DUP2 ADD SWAP4 SWAP3 DUP2 ADD SWAP3 PUSH1 0x1 ADD PUSH2 0x210D JUMP JUMPDEST PUSH1 0x1 SLOAD PUSH1 0x1 PUSH1 0x1 PUSH1 0xA0 SHL SUB AND CALLER SUB PUSH2 0x2143 JUMPI JUMP JUMPDEST PUSH1 0x64 PUSH1 0x40 MLOAD PUSH3 0x461BCD PUSH1 0xE5 SHL DUP2 MSTORE PUSH1 0x20 PUSH1 0x4 DUP3 ADD MSTORE PUSH1 0x20 PUSH1 0x24 DUP3 ADD MSTORE PUSH32 0x4F776E61626C653A2063616C6C6572206973206E6F7420746865206F776E6572 PUSH1 0x44 DUP3 ADD MSTORE REVERT JUMPDEST PUSH1 0x0 NOT DUP2 EQ PUSH2 0xBE6 JUMPI PUSH1 0x1 ADD SWAP1 JUMP JUMPDEST SWAP2 SWAP1 DUP3 ADD DUP1 SWAP3 GT PUSH2 0xBE6 JUMPI JUMP JUMPDEST DUP1 SLOAD PUSH1 0x1 PUSH1 0x40 SHL DUP2 LT ISZERO PUSH2 0xCC4 JUMPI PUSH2 0x21C0 SWAP2 PUSH1 0x1 DUP3 ADD DUP2 SSTORE PUSH2 0x1F92 JUMP JUMPDEST DUP2 SWAP3 SWAP2 SLOAD SWAP1 PUSH1 0x3 SHL SWAP2 DUP3 SHL SWAP2 PUSH1 0x0 NOT SWAP1 SHL NOT AND OR SWAP1 SSTORE JUMP JUMPDEST SWAP2 SWAP1 DUP3 SUB SWAP2 DUP3 GT PUSH2 0xBE6 JUMPI JUMP JUMPDEST PUSH1 0xFF PUSH1 0x1 SLOAD PUSH1 0xA0 SHR AND PUSH2 0x21F4 JUMPI JUMP JUMPDEST PUSH1 0x40 MLOAD PUSH3 0x461BCD PUSH1 0xE5 SHL DUP2 MSTORE PUSH1 0x20 PUSH1 0x4 DUP3 ADD MSTORE PUSH1 0x10 PUSH1 0x24 DUP3 ADD MSTORE PUSH16 0x14185D5CD8589B194E881C185D5CD959 PUSH1 0x82 SHL PUSH1 0x44 DUP3 ADD MSTORE PUSH1 0x64 SWAP1 REVERT JUMPDEST PUSH1 0x2 PUSH1 0x0 SLOAD EQ PUSH2 0x223D JUMPI PUSH1 0x2 PUSH1 0x0 SSTORE JUMP JUMPDEST PUSH1 0x40 MLOAD PUSH3 0x461BCD PUSH1 0xE5 SHL DUP2 MSTORE PUSH1 0x20 PUSH1 0x4 DUP3 ADD MSTORE PUSH1 0x1F PUSH1 0x24 DUP3 ADD MSTORE PUSH32 0x5265656E7472616E637947756172643A207265656E7472616E742063616C6C00 PUSH1 0x44 DUP3 ADD MSTORE PUSH1 0x64 SWAP1 REVERT JUMPDEST ISZERO PUSH2 0x2289 JUMPI JUMP JUMPDEST PUSH1 0x40 MLOAD PUSH3 0x461BCD PUSH1 0xE5 SHL DUP2 MSTORE PUSH1 0x20 PUSH1 0x4 DUP3 ADD MSTORE PUSH1 0x13 PUSH1 0x24 DUP3 ADD MSTORE PUSH19 0x125B9D985B1A590818D85B5C185A59DB881251 PUSH1 0x6A SHL PUSH1 0x44 DUP3 ADD MSTORE PUSH1 0x64 SWAP1 REVERT JUMPDEST ISZERO PUSH2 0x22CB JUMPI JUMP JUMPDEST PUSH1 0x40 MLOAD PUSH3 0x461BCD PUSH1 0xE5 SHL DUP2 MSTORE PUSH1 0x20 PUSH1 0x4 DUP3 ADD MSTORE PUSH1 0x16 PUSH1 0x24 DUP3 ADD MSTORE PUSH22 0x43616D706169676E206973206E6F7420616374697665 PUSH1 0x50 SHL PUSH1 0x44 DUP3 ADD MSTORE PUSH1 0x64 SWAP1 REVERT JUMPDEST ISZERO PUSH2 0x2310 JUMPI JUMP JUMPDEST PUSH1 0x40 MLOAD PUSH3 0x461BCD PUSH1 0xE5 SHL DUP2 MSTORE PUSH1 0x20 PUSH1 0x4 DUP3 ADD MSTORE PUSH1 0x15 PUSH1 0x24 DUP3 ADD MSTORE PUSH21 0x43616D706169676E207374696C6C20616374697665 PUSH1 0x58 SHL PUSH1 0x44 DUP3 ADD MSTORE PUSH1 0x64 SWAP1 REVERT JUMPDEST ISZERO PUSH2 0x2354 JUMPI JUMP JUMPDEST PUSH1 0x40 MLOAD PUSH3 0x461BCD PUSH1 0xE5 SHL DUP2 MSTORE PUSH1 0x20 PUSH1 0x4 DUP3 ADD MSTORE PUSH1 0x15 PUSH1 0x24 DUP3 ADD MSTORE PUSH21 0x139BC818DBDB9D1C9A589D5D1A5BDB88199BDD5B99 PUSH1 0x5A SHL PUSH1 0x44 DUP3 ADD MSTORE PUSH1 0x64 SWAP1 REVERT JUMPDEST PUSH1 0x40 MLOAD SWAP1 PUSH2 0x239E DUP3 PUSH2 0x1E25 JUMP JUMPDEST DUP2 PUSH2 0x160 PUSH1 0x0 SWAP2 DUP3 DUP2 MSTORE DUP3 PUSH1 0x20 DUP3 ADD MSTORE PUSH1 0x60 PUSH1 0x40 DUP3 ADD MSTORE PUSH1 0x60 DUP1 DUP3 ADD MSTORE PUSH1 0x60 PUSH1 0x80 DUP3 ADD MSTORE DUP3 PUSH1 0xA0 DUP3 ADD MSTORE DUP3 PUSH1 0xC0 DUP3 ADD MSTORE DUP3 PUSH1 0xE0 DUP3 ADD MSTORE DUP3 PUSH2 0x100 DUP3 ADD MSTORE DUP3 PUSH2 0x120 DUP3 ADD MSTORE DUP3 PUSH2 0x140 DUP3 ADD MSTORE ADD MSTORE JUMP JUMPDEST PUSH8 0xFFFFFFFFFFFFFFFF DUP2 GT PUSH2 0xCC4 JUMPI PUSH1 0x5 SHL PUSH1 0x20 ADD SWAP1 JUMP JUMPDEST DUP1 MLOAD DUP3 LT ISZERO PUSH2 0x1FAA JUMPI PUSH1 0x20 SWAP2 PUSH1 0x5 SHL ADD ADD SWAP1 JUMP JUMPDEST DUP2 ISZERO ISZERO DUP1 PUSH2 0x26B9 JUMPI JUMPDEST ISZERO PUSH2 0x2684 JUMPI PUSH1 0x3 DUP1 SLOAD SWAP3 SWAP1 PUSH1 0x0 PUSH1 0x1 JUMPDEST DUP6 DUP2 GT ISZERO PUSH2 0x2644 JUMPI POP DUP1 DUP5 LT ISZERO PUSH2 0x261B JUMPI DUP1 DUP5 SWAP2 PUSH2 0x2450 DUP6 DUP5 PUSH2 0x2196 JUMP JUMPDEST GT PUSH2 0x2608 JUMPI JUMPDEST POP POP PUSH2 0x2461 DUP3 PUSH2 0x23ED JUMP JUMPDEST PUSH1 0x40 SWAP2 PUSH2 0x2470 DUP4 MLOAD SWAP3 DUP4 PUSH2 0x1E5E JUMP JUMPDEST DUP4 DUP3 MSTORE PUSH1 0x1F NOT PUSH2 0x247F DUP6 PUSH2 0x23ED JUMP JUMPDEST ADD PUSH1 0x0 JUMPDEST DUP2 DUP2 LT PUSH2 0x25F1 JUMPI POP POP PUSH1 0x0 SWAP2 DUP3 SWAP5 PUSH1 0x1 JUMPDEST DUP9 DUP2 GT ISZERO DUP1 PUSH2 0x25E8 JUMPI JUMPDEST ISZERO PUSH2 0x25DC JUMPI DUP1 PUSH1 0x0 MSTORE PUSH1 0x4 PUSH1 0x20 SWAP1 DUP1 DUP3 MSTORE DUP10 DUP9 PUSH1 0x0 KECCAK256 SWAP2 PUSH1 0x8 DUP1 DUP5 ADD SLOAD SWAP2 DUP3 SWAP2 PUSH1 0xFF SWAP4 DUP5 SWAP2 SHR AND SWAP4 DUP5 PUSH2 0x24E1 JUMPI JUMPDEST POP POP POP POP POP POP POP PUSH2 0x24DC SWAP1 PUSH2 0x2187 JUMP JUMPDEST PUSH2 0x2494 JUMP JUMPDEST DUP13 SWAP1 DUP15 SWAP9 SWAP15 LT ISZERO PUSH2 0x250D JUMPI JUMPDEST POP POP POP POP POP POP POP PUSH2 0x2500 PUSH2 0x24DC SWAP2 PUSH2 0x2187 JUMP JUMPDEST SWAP7 SWAP1 CODESIZE DUP1 DUP1 DUP1 DUP1 DUP14 PUSH2 0x24CC JUMP JUMPDEST SWAP4 PUSH2 0x2500 SWAP7 SWAP4 PUSH1 0xA SWAP4 PUSH2 0x256E PUSH2 0x25D0 SWAP9 SWAP5 PUSH2 0x24DC SWAP12 SWAP16 SWAP9 DUP16 DUP2 PUSH2 0x2562 SWAP3 MLOAD SWAP11 PUSH2 0x2535 DUP13 PUSH2 0x1E25 JUMP JUMPDEST DUP10 SLOAD DUP13 MSTORE PUSH1 0x1 DUP11 ADD SLOAD PUSH1 0x1 PUSH1 0x1 PUSH1 0xA0 SHL SUB AND SWAP1 DUP13 ADD MSTORE PUSH2 0x2557 PUSH1 0x2 DUP11 ADD PUSH2 0x1E80 JUMP JUMPDEST SWAP1 DUP12 ADD MSTORE DUP8 ADD PUSH2 0x1E80 JUMP JUMPDEST PUSH1 0x60 DUP10 ADD MSTORE DUP6 ADD PUSH2 0x1E80 JUMP JUMPDEST PUSH1 0x80 DUP8 ADD MSTORE PUSH1 0x5 DUP5 ADD SLOAD PUSH1 0xA0 DUP8 ADD MSTORE PUSH1 0x6 DUP5 ADD SLOAD PUSH1 0xC0 DUP8 ADD MSTORE PUSH1 0x7 DUP5 ADD SLOAD PUSH1 0xE0 DUP8 ADD MSTORE AND ISZERO ISZERO PUSH2 0x100 DUP6 ADD MSTORE ISZERO ISZERO PUSH2 0x120 DUP5 ADD MSTORE PUSH1 0x9 DUP2 ADD SLOAD PUSH2 0x140 DUP5 ADD MSTORE ADD SLOAD PUSH2 0x160 DUP3 ADD MSTORE PUSH2 0x25BF DUP3 DUP9 PUSH2 0x2405 JUMP JUMPDEST MSTORE PUSH2 0x25CA DUP2 DUP8 PUSH2 0x2405 JUMP JUMPDEST POP PUSH2 0x2187 JUMP JUMPDEST SWAP6 SWAP2 CODESIZE DUP1 DUP1 DUP1 DUP12 PUSH2 0x24ED JUMP JUMPDEST POP POP SWAP6 POP POP POP POP POP POP SWAP1 JUMP JUMPDEST POP DUP2 DUP6 LT PUSH2 0x249E JUMP JUMPDEST PUSH1 0x20 SWAP1 PUSH2 0x25FC PUSH2 0x2391 JUMP JUMPDEST DUP3 DUP3 DUP8 ADD ADD MSTORE ADD PUSH2 0x2483 JUMP JUMPDEST PUSH2 0x2613 SWAP3 SWAP4 POP PUSH2 0x21D8 JUMP JUMPDEST SWAP1 DUP3 CODESIZE PUSH2 0x2456 JUMP JUMPDEST POP POP POP POP POP PUSH1 0x40 MLOAD PUSH1 0x20 DUP2 ADD DUP2 DUP2 LT PUSH8 0xFFFFFFFFFFFFFFFF DUP3 GT OR PUSH2 0xCC4 JUMPI PUSH1 0x40 MSTORE PUSH1 0x0 DUP2 MSTORE SWAP1 JUMP JUMPDEST DUP1 PUSH1 0x0 MSTORE PUSH1 0x4 PUSH1 0x20 MSTORE PUSH1 0xFF PUSH1 0x8 DUP1 PUSH1 0x40 PUSH1 0x0 KECCAK256 ADD SLOAD SWAP1 SHR AND PUSH2 0x266F JUMPI JUMPDEST PUSH2 0x266A SWAP1 PUSH2 0x2187 JUMP JUMPDEST PUSH2 0x2432 JUMP JUMPDEST SWAP1 PUSH2 0x267C PUSH2 0x266A SWAP2 PUSH2 0x2187 JUMP JUMPDEST SWAP2 SWAP1 POP PUSH2 0x2661 JUMP JUMPDEST PUSH1 0x40 MLOAD PUSH3 0x461BCD PUSH1 0xE5 SHL DUP2 MSTORE PUSH1 0x20 PUSH1 0x4 DUP3 ADD MSTORE PUSH1 0xD PUSH1 0x24 DUP3 ADD MSTORE PUSH13 0x125B9D985B1A59081B1A5B5A5D PUSH1 0x9A SHL PUSH1 0x44 DUP3 ADD MSTORE PUSH1 0x64 SWAP1 REVERT JUMPDEST POP PUSH1 0x64 DUP3 GT ISZERO PUSH2 0x2422 JUMP INVALID LOG2 PUSH5 0x6970667358 0x22 SLT KECCAK256 0x27 MULMOD 0xC2 MOD 0xAF DUP6 0xD2 CREATE2 SWAP6 KECCAK256 MSTORE8 TIMESTAMP 0xD7 MUL JUMPDEST 0xD7 0xE5 0x5E BASEFEE 0x29 0x2E BLOCKHASH 0xBD CALLDATACOPY 0xD1 0x22 DUP4 0xC9 DIV NOT PC LOG3 PUSH5 0x736F6C6343 STOP ADDMOD SGT STOP CALLER "},"methodIdentifiers":{"CAMPAIGN_CREATION_FEE()":"c4b8d53d","campaignContributions(uint256,uint256)":"539157bd","campaignCounter()":"fca604d7","campaigns(uint256)":"141961bc","contributeToCampaign(uint256)":"0b7ef89b","contributions(uint256,address)":"3d891f59","createCampaign(string,string,string,uint256,uint256)":"980f2e66","deactivateCampaign(uint256)":"7eca30fe","emergencyRefund(uint256,address)":"dae21c58","emergencyWithdraw()":"db2e21bc","getActiveCampaigns(uint256,uint256)":"b6531458","getCampaign(uint256)":"5598f8cc","getCampaignContributions(uint256)":"d3b0c32c","getCampaignStats(uint256)":"660bf9de","getContractStats()":"dfe6b5d6","getContribution(uint256,address)":"e081dbf9","getRefund(uint256)":"d2f0be99","getUserCampaigns(address)":"a1e5084c","getUserContributions(address)":"e36465a3","isCampaignSuccessful(uint256)":"06db57bb","owner()":"8da5cb5b","pause()":"8456cb59","paused()":"5c975abb","reactivateCampaign(uint256)":"1fdc217c","renounceOwnership()":"715018a6","totalFeesCollected()":"60c6d8ae","transferOwnership(address)":"f2fde38b","unpause()":"3f4ba83a","userCampaigns(address,uint256)":"19ac74bd","userContributions(address,uint256)":"7331fa95","withdrawCampaignFunds(uint256)":"14169e2a","withdrawFees(uint256)":"5e318e07"}}}}}